:020000040800F2
:10000000C80B0020CD010008B7220008BD1400086D
:10001000B52200081903000897240008000000001A
:10002000000000000000000000000000392300086C
:100030001B03000800000000B92200083B23000851
:10004000E7010008E7010008E7010008E7010008F0
:10005000E7010008E7010008E7010008E7010008E0
:10006000E7010008E7010008E7010008E7010008D0
:10007000E7010008E7010008E7010008E7010008C0
:10008000E7010008E7010008E7010008E7010008B0
:10009000E7010008E7010008E7010008E7010008A0
:1000A000E7010008E7010008E7010008E701000890
:1000B000E7010008E7010008E7010008CD14000887
:1000C000C1140008E7010008E7010008E701000883
:1000D000E7010008E7010008E7010008E701000860
:1000E000E7010008E7010008E7010008E701000850
:1000F000E7010008E7010008E7010008E701000840
:10010000E7010008E7010008E7010008E70100082F
:10011000E7010008E7010008E7010008E70100081F
:10012000E7010008E7010008E7010008E70100080F
:1001300000F002F800F03AF80AA090E8000C8244BF
:100140008344AAF10107DA4501D100F02FF8AFF29C
:10015000090EBAE80F0013F0010F18BFFB1A43F0A5
:1001600001031847983C0000B83C0000103A24BF37
:1001700078C878C1FAD8520724BF30C830C144BF0C
:1001800004680C607047000000230024002500264E
:10019000103A28BF78C1FBD8520728BF30C148BFEA
:1001A0000B6070471FB51FBD10B510BD00F07AF889
:1001B0001146FFF7F7FF02F0C3F900F098F803B417
:1001C000FFF7F2FF03BC00F0A1F8000009488047E8
:1001D00009480047FEE7FEE7FEE7FEE7FEE7FEE729
:1001E000FEE7FEE7FEE7FEE704480549054A064B41
:1001F000704700009D23000831010008C805002059
:10020000C80B0020C8070020C80700204FF00002DC
:100210000429C0F0128010F0030C00F01B80CCF118
:10022000040CBCF1020F18BF00F8012BA8BF20F886
:10023000022BA1EB0C0100F00DB85FEAC17C24BFDA
:1002400000F8012B00F8012B48BF00F8012B704784
:100250004FF0000200B5134694469646203922BF5F
:10026000A0E80C50A0E80C50B1F12001BFF4F7AFAA
:10027000090728BFA0E80C5048BF0CC05DF804EB8C
:10028000890028BF40F8042B08BF704748BF20F8FA
:10029000022B11F0804F18BF00F8012B70477047F8
:1002A00070477047754600F02BF8AE46050069466A
:1002B000534620F00700854618B020B5FFF794FF9D
:1002C000BDE820404FF000064FF000074FF0000857
:1002D0004FF0000B21F00701AC46ACE8C009ACE8D8
:1002E000C009ACE8C009ACE8C0098D46704710B53C
:1002F0000446AFF300802046BDE81040FFF75FBF23
:100300000048704768050020704700000149182028
:10031000ABBEFEE726000200FEE7704772B6FEE7BE
:100320002DE9F05F90F821100024022903D0042168
:100330008163012485E001680A6822F00E020A60E8
:1003400001680A6822F001020A603F4E3E4FB21572
:10035000DFF8F4C0DFF8F090DFF8ECA0DFF8E8B0E9
:10036000DFF8E4E00168783F13011502ACF1640C9A
:10037000A9F15009AAF13C0AABF1280BAEF1140E19
:100380004FF48018B14227D9B9420ED0614512D03E
:1003900049451DD0514518D0594518D0714501D156
:1003A000424615E0294EB14201D1012210E0274E0C
:1003B0001436B14201D110220AE0244E2836B1424F
:1003C00006D0224A3C32914201D11A4600E02A4628
:1003D0001E49091F0A602BE0B94213D0614517D0AE
:1003E000494522D051451DD059451DD0714501D1F7
:1003F00042461AE0B14202D14FF0807215E0134E2E
:10040000B14201D1012210E0104E1436B14201D1A7
:1004100010220AE00D4E2836B14206D00B4A3C327B
:10042000914201D11A4600E02A46074980394A60C4
:10043000012180F82110002180F82010416B01B1CA
:1004400088472046BDE8F09F800002400804024033
:1004500090F821007047000070B5044600F014F9D0
:100460000546601C02D004480078044400F00CF9F2
:10047000401BA042FAD370BD340000202DE9F84F94
:10048000DFF8C8910024A9F1040B23460F2709F1D6
:10049000040AABF1040ED1E00125A54006EA0502ED
:1004A000AA4276D1DFF8A8C14E68A6EB0C086645D3
:1004B0002BD00DDC032E34D005DC36B3012E19D041
:1004C000022E2FD11BE0112E16D0122E2AD119E0A8
:1004D000B8F5881F19D006DCB8F5803F15D0B8F5FF
:1004E000801F1FD111E0B8F5001F0ED0B8F5041F12
:1004F00018D10AE0CB6815E0CB681B1D12E0CB6871
:1005000008330FE0CB680C330CE08B682BB1012B68
:100510004FF0080303D0456104E0042302E00561C5
:1005200000E00023FF2A01D8064601E000F104069E
:100530004FEA840501D9A5F12005D6F8008007FA15
:1005400005FC28EA0C0803FA05F548EA0508C6F890
:1005500000804D68ED0070D53E4DAE6946F0010655
:10056000AE61AD6924F0030605F0010500953A4D32
:1005700006EB050CDCF80850A607360F07FA06F85C
:1005800025EA0805DFF8D480404503D14FF0000884
:1005900025E052E0DFF8C880404502D14FF0010865
:1005A0001DE0DFF8C080404502D14FF0020816E0A0
:1005B000DFF8B480404502D14FF003080FE0DFF8C8
:1005C000AC80404502D14FF0040808E0DFF8A0807D
:1005D000404502D14FF0050801E04FF0060808FA47
:1005E00006F848EA0508CCF808804D68D9F800609C
:1005F000ED024D4601D5164300E096432E604D684E
:10060000DAF80060AD02554601D5164300E0964386
:100610002E604D68DBF80060AD035D4601D51643E2
:1006200000E096432E604D68DEF80060ED037546ED
:1006300001D5164300E096432E60641C0A681646F6
:10064000E2407FF429AFBDE8F88F000008040140C4
:10065000000011100010024000000140000801409D
:10066000000C01400010014000140140001801403E
:10067000001C01408068084000D0012070470AB18A
:10068000016170470904FBE701488068704700007A
:1006900034000020704770472DE9F041016804469E
:1006A0004A694E6890F83E000025D743FA050BD4FE
:1006B000F243D20508D46FF4807201254A612168A3
:1006C0000A6842F400420A60B90508D4F143C9053A
:1006D00005D422686FF4007145F002055161790577
:1006E00025D4F143C90522D4638D94F83D10226BC3
:1006F000202808D13BB9212910D029290ED028293A
:1007000001D1212A0AD022686FF48061516145F03D
:100710000405102806D0402804D008E0204601F047
:1007200037FB04E02068016841F40071016038057E
:1007300008D4F043C00505D421686FF4006045F08B
:1007400008054861002D07D0206C2843206420460E
:10075000BDE8F04100F026BFBDE8F0812DE9F0478B
:10076000026800215368C66A90F83E4090F83D50F8
:10077000102C12D0402C10D0046C002C7DD0546969
:10078000E443A6077AD4DE43B60577D4036C03B1FD
:100790009169BDE8F04701F0D7BA976951694FF404
:1007A0002A0CC9435FEAC1784FF02A4904D0664554
:1007B0002AD04E4528D010E0DE43B6050DD4C16ADC
:1007C000614501D1012103E0C16A494501D10821F8
:1007D000C162BDE8F04701F01DBA0E0716D4DE4332
:1007E000B60513D4416CC9B21161416B09B1896A74
:1007F00029B9816B002907D0896A002904D00068D3
:10080000416841F400614160BDE8F0878E0706D47D
:10081000DE43B60503D4BDE8F04701F04FB9FE430F
:10082000526876074FEA02521DD4002AECDB0A0612
:1008300008D4DA43520505D4490705D5BDE8F04789
:1008400001F0E0B84907DFD4D9438905DCD4212D74
:1008500005D0402CD8D1BDE8F04701F021BABDE861
:10086000F04701F08DB8002ACEDB4A060BD4DA43FC
:10087000520508D4490708D501E00DE00EE0BDE8B7
:10088000F04700F0BBBF4907BED4D9438905BBD4AC
:10089000BDE8F04700F049BF916970E7E10606D472
:1008A000D943890503D4BDE8F04701F0B9BA28213E
:1008B000212D27D0292D25D0650655D4DD436D0582
:1008C00052D4640752D590F83D30448D002C9BD013
:1008D0001269446A2270426A521C4262428D521E60
:1008E0004285428D002A8FD12A2B8DD10268536810
:1008F00023F4806353602222026380F83D1000F0ED
:10090000E5F981E7250623D4DD436D0520D464078E
:1009100020D590F83D30448D002CF2D0446A2478E4
:100920001461426A521C4262428D521E4285428DBF
:10093000002AE6D1292BE4D10268536823F48063AE
:1009400053602122026380F83D1000F0C0F95BE79C
:100950006107D6D4D9438905D3D4418D0029D0D09D
:10096000416A097811610AE06107CAD4D94389054F
:10097000C7D4418D0029C4D01169426A1170416AFF
:10098000491C4162418D491E41853DE77047000089
:1009900070B5040025D094F83D00002520B984F8F6
:1009A0003C50204600F054F9242084F83D00206893
:1009B000016821F0010101602068016841F40041F3
:1009C00001602068016821F40041016000F0AEFA86
:1009D0004D4A6168914201D84C4900E04C49884237
:1009E00001D2012070BD4B492368B0FBF1F15E6874
:1009F00026F03F060E435E606368934206D94FF4CB
:100A0000967359434FF47A73B1FBF3F12368491C91
:100A10001E6A26F03F06314319626168914210D880
:100A20004900401EB0FBF1F2521CC2F30B02042A33
:100A300001D2042022E0B0FBF1F0401CC0F30B0017
:100A40001CE0A268F2B301EBC10303EB0116431EE5
:100A5000B3FBF6F35B1C43F480431B0549D092B310
:100A600001EBC10202EB0111401EB0FBF1F0401C92
:100A7000C0F30B0040F4804040F400402168CA6994
:100A80004CF6FF739A431043C861D4E90710014341
:100A90002068026822F0C00211430160D4E903011A
:100AA00001432068826848F2FF339A431143816012
:100AB000D4E9050108432168CA6822F0FF02104307
:100AC000C86001E00EE016E02068016841F0010115
:100AD00001602564202084F83D00256384F83E50A1
:100AE000002070BD01EB4106431EB3FBF6F35B1C17
:100AF000B3E70120C2E701EB4101401EB0FBF1F07A
:100B0000401CC0F30B00B7E7A086010080841E00E4
:100B100000093D0040420F007047704770470000D9
:100B20002DE9F84F1F4690468A460446DDF8289086
:100B3000FFF7AAFD054694F83D0020287FD1192330
:100B4000012240492046009501F044FA002876D160
:100B500094F83C00012872D0012084F83C00206801
:100B60000168C90703D1016841F0010101602068F3
:100B7000016821F400610160212084F83D0010200B
:100B800084F83E0000262664C4F824806785608DC2
:100B900020852D48E0622B464A465146204600F00B
:100BA000A1FE90B9206841698069009036E02A462C
:100BB0004946204601F0B4FA50B1206C042804D113
:100BC0002068016841F4007101600120BDE8F88FE0
:100BD000606A216800780861606A401C6062618D0B
:100BE000491E6185218D491E89B22185226853697C
:100BF000DB435B070BD451B100781061606A401C85
:100C00006062608D401E6085208D401E20852A46D2
:100C10004946204601F0B2F90028CED1208D0028A7
:100C2000C5D154F83D0B016841F4007101602020EA
:100C300004F81E09E67766770020C7E7FFE7022081
:100C4000C4E70000020010000000FFFF704770477B
:100C500010B586B0002100910191029103910068C6
:100C6000174988422AD1174CA06940F00800A061BA
:100C7000A069694600F008000490C020009012208E
:100C80000190032003901048FFF7F8FBE06940F45F
:100C90000010E061E069002200F4001004901146A9
:100CA0001F2000F07BF81F2000F06AF80022114698
:100CB000202000F073F8202000F062F806B010BD8C
:100CC0000054004000100240000C01407047704783
:100CD0000248816802781144816070473400002026
:100CE000074810B5016841F010010160032000F0D1
:100CF00075F80F2000F006F800F024F8002010BD71
:100D00000020024070B50D4D04464FF47A712878EA
:100D1000B1FBF0F00A490968B1FBF0F000F0CCFA41
:100D200048B9102C07D200222146501E00F036F898
:100D300000206C6070BD012070BD000034000020F8
:100D4000400000200C4808B5816941F00101816133
:100D5000816901F001010091C16941F08051C161D7
:100D6000C06900F0805000900448416821F0E061C3
:100D700041F00071416008BD0010024000000140D8
:100D8000002809DB00F01F0201219140400980008A
:100D900000F1E020C0F8001170470000F0B40E4BE5
:100DA0001B680C46C3F30223C3F10705042D00D9C9
:100DB0000425191D072901D2002300E0DB1E0126AE
:100DC00006FA05F1491E214099409E40761E1640C4
:100DD0003143F0BC01F060BB0CED00E0064900F0CF
:100DE000070208684FF6FF03184040EA0220034A52
:100DF00010430860704700000CED00E00000FA05A9
:100E00002DE9F0470F46050061D0434E306800F0F1
:100E10000700B84209D2306820F00700384330603C
:100E2000306800F00700B84251D128683B4C810778
:100E300012D5400703D5606840F4E0606060287810
:100E4000000703D5606840F4605060606068A9687E
:100E500020F0F000084360602878C00728D0686858
:100E6000012810D02168022810D0890700292EDA25
:100E7000616821F0030101436160FFF705FC8046D2
:100E800041F288390DE021688903EFE78901EDE738
:100E9000FFF7FAFBA0EB0801494502D90320BDE8A2
:100EA000F0876068696800F00C00B0EB810FEFD14B
:100EB000306800F00700B8420BD9306820F0070016
:100EC00038433060306800F00700B84201D001209C
:100ED000E5E72878400705D56068E96820F4E06018
:100EE000084360602878000706D56068296920F407
:100EF000605040EAC100606000F028F86168084A6C
:100F0000C1F30311515CC8400649086006480068F7
:100F1000FFF7F8FE0020C2E7002002400010024068
:100F200048360008400000203800002004480549E9
:100F300000684968044AC1F30221515CC840704707
:100F40004000002000100240583600080E4A516848
:100F50000E4801F00C03042B11D0082B0FD10C48C4
:100F6000C1F38343C903C05C0AD55168084AC1F381
:100F70004041921E515C054A5043B0FBF1F070476E
:100F800004494843704700000010024000127A00F4
:100F90003836000800093D002DE9F84F040070D0F4
:100FA0002078C04DC00749D06868C0F3810001288F
:100FB00007D06868C0F38100022809D16868C003BF
:100FC00006D52868800339D560680028E7D035E069
:100FD0006068B0F5803F0BD010B1B0F5A02F11D0F4
:100FE000286820F480302860286820F4802002E0FF
:100FF000286840F480302860606890B1FFF744FBB7
:1010000006460AE0286840F480202860F0E700BF28
:10101000FFF73AFB801B642873D828688003F7D554
:101020000CE0FFF731FB064605E000BFFFF72CFBA5
:10103000801B6428F0D828688003F7D420789A4E63
:1010400080074FF001094FF0000839D5686810F0AB
:101050000C0F07D06868C0F38100022809D16868C6
:10106000C00306D42868800714D52069012808D158
:1010700010E02069B0B1C6F80090FFF705FB074605
:1010800005E00AE1FFF700FBC01B0228C4D828686E
:101090008007F7D52868616920F0F80040EAC100B0
:1010A00028600DE0C6F80080FFF7EEFA074604E07E
:1010B000FFF7EAFAC01B022823D828688007F7D474
:1010C000207800072CD57948A169D9B1C0F80090E3
:1010D000FFF7DAFA074604E0FFF7D6FAC01B02284A
:1010E0000FD8686A8007F7D571484FF4FA51006845
:1010F000B0FBF1F0009000BF0098411E0091FAD2C1
:101100000EE080E0C0F80080FFF7BEFA074604E07A
:10111000FFF7BAFAC01B022875D8686A8007F7D4AF
:101120002078400760D5E8690027C00008D4E86946
:1011300040F08050E861E869012700F0805000909D
:101140005C480168C90513D40168834641F4807185
:101150000160FFF799FA824606E000BFFFF794FAB4
:10116000A0EB0A0064284ED8DBF80000C005F5D5D6
:10117000E06801280AD008B1052813D0286A20F0B9
:1011800001002862286A20F0040002E0286A40F08A
:1011900001002862E06841F2883B98B1FFF774FAD9
:1011A00082460BE0286A40F004002862EEE700BFA8
:1011B000FFF76AFAA0EB0A0159455AD8286A800756
:1011C000F6D50CE0FFF760FA824605E0FFF75CFA1F
:1011D000A0EB0A0159454CD8286A8007F6D41FB104
:1011E000E86920F08050E861E06988B36968C1F37C
:1011F0008101022944D00228C6F8608004D0FFF79C
:1012000043FA044638E034E0FFF73EFA074604E0CC
:10121000FFF73AFAC01B02282BD828688001F7D4C0
:10122000206AB0F5803F05D16868A16820F40030DD
:1012300008436860D4E908010843696821F474111F
:1012400008436860C6F86090FFF71EFA044606E09F
:1012500025E000BFFFF718FA001B022809D828680C
:101260008001F7D51BE000BFFFF70EFA001B022834
:1012700002D90320BDE8F88F28688001F4D40EE07D
:101280000128F7D06868226A00F48031914204D1C5
:10129000616A00F47010884201D00120EAE7002062
:1012A000E8E7000000100240000042428004424291
:1012B000400000200070004010B5401EB0F1807F5B
:1012C00001D3012010BD4FF0E02460610F216017B1
:1012D00001F0E2F80020A06107202061002010BD8D
:1012E00070B590F83C20012A2CD0012480F83C40B5
:1012F000022280F83D2003685A689D6822F070063B
:101300000A6832435A60104B02689A420ED00F4B63
:101310009A420BD0B2F1804F08D00D4B9A4205D0C3
:101320000C4B9A4202D00C4B9A4204D1496825F0EA
:1013300080031943916080F83D40002180F83C1003
:10134000084670BD022070BD002C014000340140F1
:101350000004004000080040000C004010B50400EC
:1013600003D094F83D0010B107E0012010BD00202B
:1013700084F83C00204600F01FF8022084F83D006D
:10138000211D206801F00CF8012084F8460084F843
:101390003E0084F83F0084F8400084F8410084F85F
:1013A000420084F8430084F8440084F8450084F83F
:1013B0003D00002010BD000008B5006806498842C5
:1013C00008D10648816941F400618161806900F4B7
:1013D0000060009008BD0000002C01400010024099
:1013E00070B5044690F83C000025012817D001266E
:1013F00084F83C60022084F83D002068826822F076
:10140000770222F47F4282600868502838D00DDCD1
:1014100020284FD005DC90B3102811D14AE00220DB
:1014200070BD302846D040280AD13BE060282FD03C
:1014300070280DD0B0F5805F03D0B0F5005F12D0FA
:10144000012584F83D60002084F83C00284670BDEA
:10145000CB68D1E90121206800F0E8FF20688168AD
:1014600041F0770109E0CB68D1E90121206800F063
:10147000DDFF2068816841F480418160E1E719E087
:10148000CA684968206800F0E3FF5021206806E040
:10149000CA684968206800F0ECFF6021206800F00D
:1014A000CFFFCEE7CA684968206800F0D1FF40212D
:1014B0002068F4E7226801461046F0E7FEE70000E6
:1014C0000148FFF7E9B80000CC0000200148FFF711
:1014D00045B90000CC00002038B5406A002190F8E2
:1014E0003D202B4B46F2A8141B68B3FBF4F3C3EB6F
:1014F000C30303EB830300933BB15B1E00930368BC
:101500001B689B0505D5009BF6E7036C43F02003A1
:101510000364436B03B19962836B03B199620368FF
:101520001C6824F480641C604185436B03B15963DB
:10153000836B03B1596303681C6824F001041C60C9
:1015400090F83D402023602C0BD0282434EA02027E
:101550000FD080F83D3080F83E1000BFFFF716FA3C
:1015600038BD80F83D3080F83E100164FFF792F8F6
:1015700038BD0268136843F0010313600268136802
:1015800043F480631360016380F83D40E6E70000A8
:101590004000002000684169C943090601D40021C8
:1015A0000161704770B5044690F83D0094F83E1014
:1015B000102901D0402906D1222804D121680A68C7
:1015C00022F400620A60282131EA00024FF000058F
:1015D0004FF0200626D021684968090505D4602807
:1015E00003D084F83D6084F83E502563206841684C
:1015F000090537D5416821F400614160606B90F8BE
:1016000021203C49012A11D04163606BFEF788FE1E
:1016100038B32068016821F00101016084F83D6061
:10162000606B1CE0256384F83D10DFE7A06B41632D
:10163000A06BFEF775FEA0B120684169C943490659
:1016400005D40069616A0870606A401C60622068A5
:10165000016821F00101016084F83D60A06B416BDD
:10166000884710E094F83D10602910D04169C943C3
:10167000490605D40069616A0870606A401C6062AE
:101680002046FFF783F9206CC1071CD115E084F8D0
:101690003D6025644169C943490605D40069616A12
:1016A0000870606A401C60622068016821F00101D6
:1016B00001602046FEF7EEFFE5E7810703D441070E
:1016C00001D4000704D52068416821F4E06141603D
:1016D00094F83D00216C49070BD5282809D106480C
:1016E000E062256384F83D6084F83E502046FFF7B1
:1016F00013FA70BDD91400080000FFFF01684A69A1
:10170000D24352050FD46FF480624A61002140F841
:10171000301F202242738173026942F00402026189
:101720000173012070470020704710B5C26A438DD5
:101730000168042B06D0438D032B08D0438D022B68
:101740001DD012E04A6822F480624A600CE04B68C7
:1017500023F480634B60042A06D0022A04D0016877
:101760000A6822F480620A6001680969426A11709D
:10177000416A491C4162418D491E418510BD012AC3
:1017800030D0102A2ED0042A30D0022A2ED00A6857
:1017900042F400720A6001680969426A1170416A84
:1017A000491C4162428D521E4285026812690A70CC
:1017B000416A491C4162418D491E418501684A6860
:1017C00022F440724A60202180F83D1090F83E20BB
:1017D0000021402A80F83E100CD012210163FFF74F
:1017E0009CF910BD0A6822F48062D3E70A6842F4CB
:1017F0008062CFE70163FFF729FA10BD38B590F892
:101800003D1022290FD1418D03290DD901680969A5
:10181000426A1170416A491C4162418D491E4185ED
:10182000418D032906D038BDC26A022A02D001299F
:1018300006D029B10068416821F48061416038BD5B
:10184000274946F2A81300220968B1FBF3F101EB26
:101850008101009101682023009C641E009422D025
:101860000C68A405F8D40C6824F480640C6001684A
:101870004C6824F4E0644C6001680969446A217092
:10188000416A491C4162418D491E418580F83D30C5
:1018900090F83E1080F83E2040291DD012210163AF
:1018A000FFF73BF938BD046C44F0200404644C6835
:1018B00024F4E0644C6001680969446A2170416A5B
:1018C000491C4162418D491E418580F83D3080F8B8
:1018D0003E20FFF75BF838BD0263FFF7B7F938BD6C
:1018E00040000020F8B50446C06A1E460D46174663
:1018F000082807D0012805D010F5803F02D0206BC2
:10190000122804D12068016841F4807101601346F7
:1019100000224FF001112046009600F05BFB40B121
:1019200020680068C00502D54FF4007020640320D1
:10193000F8BD2069B0F5804F0ED00620216800EA7E
:10194000D51040F0F000086133463A460B49204676
:1019500000F088FB78B902E005F0FE0000E0E8B294
:1019600021680861054933463A46891F204600F040
:1019700079FB0028DCD00120F8BD00000800010040
:1019800010B5C26A90F83D1021290BD1418D51B19B
:10199000416A026809781161416A491C4162418DBE
:1019A000491E418510BD20230021082A13D0202A7A
:1019B00011D012F5803F0ED00268546824F4E06420
:1019C00054601122026380F83E1080F83D3000BF61
:1019D000FFF7A4F810BD0268546824F4E064546072
:1019E0000268146844F400741460016380F83D30A8
:1019F00090F83E2080F83E10402AE9D1FFF727F901
:101A000010BD000010B590F83D1090F83E30C26A4D
:101A1000048DB4B1212903D0402B11D122290FD13B
:101A2000418DE1B390F83E10402942D0416A0268EE
:101A300009781161416A491C4162418D491E418505
:101A400010BD2129E8D120230021082A13D0202A03
:101A500011D012F5803F0ED00268546824F4E0647F
:101A600054601122026380F83E1080F83D3000BFC0
:101A7000FFF754F810BD0268546824F4E064546021
:101A80000268146844F400741460016380F83D3007
:101A900090F83E2080F83E10402AE9D100E002E0B4
:101AA000FFF7D5F810BD0068416821F480614160FE
:101AB00010BDBDE8104000F0F3B8000078B590F814
:101AC0003E50C26A046B90F83D6000230168222EEC
:101AD00073D1066D0EB9402D6FD0056D1DB9056926
:101AE000B5F5404F1BD0458D95B3468D484D012E21
:101AF00020D0448D022C4DD00C6844F480640C60DE
:101B000001684C68240579D5AA4273D0012A71D0A6
:101B1000082A6FD0102A6DD0202A6BD06EE04A6957
:101B20008A6900920A6842F480720A60016D491C59
:101B3000016578BDAA4214D10A6822F480620A6065
:101B400001684A68120504D50A6822F4806217E029
:101B5000FFE74A698A6900920A6842F400720A60E3
:101B600050E0082A10D0202A0ED0122C0AD0042AC5
:101B700003D0022A01D0102AE6D10A6842F480621A
:101B80000A603BE0012ADFD00A6822F480620A6022
:101B90000168DEE7042A11D0022A0FD0102A0DD0E6
:101BA0000C6844F400640C6001684C698C69009412
:101BB0000C6824F480640C6008E025E00C6844F4B0
:101BC00080640C6001684C698969009101684C6807
:101BD000240517D5AA4207D0012A05D0082A03D028
:101BE000102A01D0202A0DD14A6842F480524A605E
:101BF00008E0FFE74A6842F480524A6001684A6997
:101C000089690091036578BD48698869009078BD4D
:101C10000000FFFF90F83E10402910D00169B1F597
:101C2000804F19D0016DA9B3016D012910D1416C0C
:101C30005FF0F10201F4407142EAD11106E0016D5A
:101C40000029416C05D0C9B241F001010068016171
:101C5000704701F0FE01F9E790F83D102129416C31
:101C600009D0C9B241F0010102681161416B29B18B
:101C7000896A49B902E001F0FE01F5E7816B0029AC
:101C8000E6D0896A0029E3D00068416841F4006128
:101C900041607047FFE7416CF02201F44071CBE7EF
:101CA00010B590F83D10026D4AB1026D012A14D0B2
:101CB000026D022A16D0BDE81040FFF76BBCC16C64
:101CC0000129816C02D0C1F3072108E00268C9B282
:101CD0001161016D891C016510BD816CC9B202687A
:101CE000116123E022291CD0428D0AB1212920D084
:101CF000428D002AF0D12129EED101684A6822F4F0
:101D0000E0624A6001680A6842F400720A600021D9
:101D10000163202280F83D2080F83E10FEF797FFF7
:101D200010BD01680A6842F480720A60016D491CA6
:101D3000D1E7416A026809781161416A491C416230
:101D4000418D491E418510BD38B50C4690F83D20A7
:101D500000212825954302680B4605D051699169F9
:101D6000009180F83C3038BD556825F48065556099
:101D7000E243540700D50121120601D5828900E013
:101D8000028B80F83C3092B2FEF785FC38BD000033
:101D90002DE9F04190F83D300446C26A002120262A
:101DA0001E4F00686FF48065082A01D0202A01D1F7
:101DB000282B04D0212B17D04561BDE8F081E762C4
:101DC000426822F4E062426020684561206802684F
:101DD00022F480620260216384F83D6084F83E1042
:101DE0002046FEF799FEE8E7E7622122226384F8A5
:101DF0003D6084F83E10416821F4E0614160206854
:101E000045612068016821F4806101602046FFF788
:101E1000C1FB2046FEF75BFFCFE700000000FFFF9D
:101E2000F8B590F83D6004460068416821F4E0612F
:101E300041602068002541690091016841F001017D
:101E400001602068016821F48061016020684168B8
:101E5000090520D5474F222E48D02A2E46D0616B47
:101E6000096849686185618D19B1216C41F00401EF
:101E70002164416821F400614160606BFEF7E8FA7B
:101E8000012808D0606B4763606BFEF749FA10B118
:101E9000606B416B8847608D08B320684169C94316
:101EA000490708D40069616A0870606A401C606272
:101EB000608D401E608520684169C943490608D489
:101EC0000069616A0870606A401C6062608D401E33
:101ED0006085608D18B1206C40F004002064206C97
:101EE00000B32046BDE8F840FFF75CBBA16B096872
:101EF00049686185618D19B1216C41F0040121644B
:101F0000416821F400614160A06BFEF7A1FA01284D
:101F1000C1D0A06B4763A06BFEF702FA0028BAD0CD
:101F2000A06BB6E72A2E06D12563282084F83D0051
:101F30002046FEF7CBFE94F83D10202028290DD036
:101F4000216B222901D0222E07D1256384F83D0080
:101F500084F83E502046FEF7B9FEF8BD0649E1621E
:101F6000256384F83D0084F83E502046FEF7D4FDFA
:101F7000F8BD0000D91400080000FFFF70B5164638
:101F80000D4604461EE02046FFF7B8FB08B10120CD
:101F900070BD681C16D0FEF777FB801BA84200D8E6
:101FA00085B920684069C04340070BD5002044F83C
:101FB000300F20216173A073216941F0200121615C
:101FC0002073E4E720684069C0434007DBD4002069
:101FD00070BD00002DE9F047984617460D460446AF
:101FE000C1F30746DDF820902AE000BFB8F1FF3FBB
:101FF00026D0FEF749FBA0EB0901414502D8B8F114
:10200000000F1DD12068012E16D0806925EA00003E
:102010000004000C12D00020B84211D1002044F876
:10202000300F20216173A073216941F020012161EB
:1020300020730120BDE8F0874069E7E70120EBE766
:102040002068012E0AD0806925EA00000004000CF7
:1020500006D00020B842C9D00020EBE74069F3E782
:102060000120F7E72DE9F047984616460D4604464D
:102070004FF000094FF0200AC1F3074723E0206822
:102080004069C043400515D42068016841F40071DF
:10209000016021686FF480604861C4F8309084F872
:1020A0003DA084F83E90216C41F00401216484F845
:1020B0003C9021E0701C06D0FEF7E6FAA0EB080089
:1020C000B04203D816B1012F1FD021E02068012FA4
:1020D00015D0806925EA00000004000C18D000BF6C
:1020E00044F8309F84F80DA084F80E90216941F0E7
:1020F0002001216184F80C900120BDE8F08740693F
:1021000025EA00000004000CEAD12068406901E0E3
:102110002068806925EA00000004000CAFD1ECE7DC
:1021200070B516460D4604461EE02046FFF7E6FA57
:1021300008B1012070BD681C16D0FEF7A5FA801BFF
:10214000A84200D885B920684069C04300060BD575
:10215000002044F8300F20216173A073216941F001
:10216000200121612073E4E720684069C043000634
:10217000DBD4002070BD0000F0B585B000242048FD
:102180000094019402940394816941F010018161EB
:10219000816901F010010491816941F020018161A0
:1021A000816901F020010491816941F0040181619C
:1021B000816901F004010491816941F008018161A4
:1021C0008069104F00F008004FF4807604900022E0
:1021D00031463846FEF753FA42F2020001258DE8F7
:1021E000310069460848FEF749F90220CDE902406E
:1021F000CDE9006569463846FEF740F905B0F0BD07
:102200000010024000080140001001400D4810B5C8
:102210000B4901600C49416000214FF4804281600C
:10222000C0E9031241618161C1610162FEF7B0FB47
:10223000002803D0BDE81040FEF770B810BD0000C4
:1022400000540040CC000020801A060010B586B073
:1022500000241748009401940294039404941349B1
:10226000059401604721C0E901144FF6FF71C0E9F0
:10227000031444618461FFF771F808B1FEF74EF86A
:102280004FF48050009069460948FFF7A9F808B15B
:10229000FEF744F8049404A905480594FFF720F8D4
:1022A000002801D0FEF73AF806B010BD002C01401E
:1022B00020010020FEE7FEE7704700002DE9FC4109
:1022C00080461B4900F021FB0426404600F07CF9C3
:1022D000184F0024A7F1100557F83430688800EB38
:1022E000041082B2A888C01C81B2404600F0C2FA35
:1022F000641CB442F0DB03210D20CDE900016889A4
:1023000083B2E88882B2A88881B2404600F031FAF0
:1023100008490839881E01F080F90649091F881EFE
:1023200001F07BF94046BDE8FC4100F0D7BA00005F
:1023300060360008100000207047FEF7C9BC30B5B9
:102340008FB028216846FDF783FF14210AA8FDF706
:102350007FFF01210804CDE900100024029402252A
:102360000491CDE907504FF4E01009906846FEF75C
:1023700013FE08B172B6FEE70F20CDE90A054FF44F
:102380008060CDE90C4002210AA80E94FEF738FDCA
:10239000002801D072B6FEE70FB030BD70470000D4
:1023A000F0B502681C4B1D4D1D4E1E4F1E4C4FF0CC
:1023B000804C984209D0A04207D0604505D0A84281
:1023C00003D0B04201D0B84204D122F0700E4A6866
:1023D00042EA0E02984209D0A04207D0604505D0DB
:1023E000A84203D0B04201D0B84203D122F44075D4
:1023F000CA682A434D6922F080022A4302608A6833
:10240000C2620A688262984201D0A04201D1096981
:10241000016301214161F0BD002C01400004004036
:1024200000080040000C00400034014010B58468F2
:1024300042EA032224F47F440A432243826010BD0F
:10244000826822F070020A4342F0070181607047FF
:1024500010B5036A046A24F001040462846924F05C
:10246000F00444EA021423F00A020A43846102627F
:1024700010BD10B5036A046A24F010040462846974
:1024800023F0A00324F4704444EA023243EA011129
:102490008261016210BDFEE70907090E002804DB16
:1024A00000F1E02080F80014704700F00F0000F108
:1024B000E02080F8141D704770B51F4D022128469A
:1024C000FEF7D8F81D4C30B16E1431462846FEF7A1
:1024D000D1F898B125E09620FDF7BEFF02212846ED
:1024E000FEF7C8F8E8B92078401CC0B220702189F6
:1024F0000F312181042814DB032011E09620FDF721
:10250000ABFF31462846FEF7B5F850B92078401E9B
:1025100010F0FF0020702189A1F10F01218100D16D
:10252000207006482178103000EBC1008088C0EB95
:10253000C000608170BD000000100140000000205C
:10254000A6B0FEF7CDFBFFF7FAFEFFF715FEFFF78B
:102550005DFEFFF77BFE684600F01CF8684600F061
:1025600097F9684600F002F8FBE70000084A10B54A
:10257000A2F110010B7802EBC3029288C2EBC202F7
:102580008A814A81FFF79AFEBDE81040FFF794BFA9
:102590001000002010B50446084B094A094900F014
:1025A000FDF9204600F0DBFD0021204600F0E7FDAC
:1025B0002046BDE8104000F007B80000793500085B
:1025C00021320008783C000801680A7C90F8381035
:1025D000406B5143C900FDF719BE2DE9F8431C4675
:1025E00080461019401C80B200900819401C83B22C
:1025F0001546101B82B20E46081B81B2089F40464A
:1026000000F054F9002806D023462A4631464046B9
:10261000009700F079FABDE8F8832DE9F04104460F
:1026200090F870001F4615460E4630B1012809D0BB
:1026300002280CD0032815D10FE0E16D2046884711
:10264000284408E0E16D20468847301A09E0E16D32
:1026500020468847281A85B204E0E16D2046884765
:10266000304486B22846A4F86460A4F8660039466F
:102670000025204600F01AFC010003D0204600F09F
:1026800045FB85B22846BDE8F08138B500240094AA
:1026900000F002F838BD00003FB581B0044690F864
:1026A0008C00089900283AD0BDF81000002836D0D8
:1026B000012811D9022902D0032907D00CE0BDF866
:1026C0000820101A401CADF8080005E0BDF80C20E9
:1026D000101A401CADF80C0011F0010521D0B4F81F
:1026E0004810BDF80800814219D8B4F84A10814258
:1026F00015D9B4F84E30B4F84C2004A90DF10C00F3
:1027000000F0E4F900280AD00095206BBDF81030E5
:10271000BDF80C208568BDF808102046A84705B014
:1027200030BDB4F84C10BDF80C008142F7D8B4F8B5
:102730004E108142F3D9B4F84A30B4F8482004A9C5
:1027400002A8DDE708B5B0F84C30934210D8B0F8D5
:102750004E3093420CD9B0F848308B4208D8B0F8CC
:102760004A308B4204D9002300930123FFF794FFE2
:1027700008BD2DE9FF4F83B01C46DDE9106502EB73
:10278000060A1FFA8AF001EB0409009017468846F2
:102790001FFA89F3039800F089F8002867D008EB46
:1027A00005001FFA80FB781981B2A9EB0500401ED5
:1027B00080B2CDE90110AAEB0500401E1FFA80F996
:1027C00002200A4600902B4659460398FFF705FF62
:1027D00001200090DDE902102B46019AFFF7FDFE73
:1027E000042000902B464A4659460398FFF7F5FE11
:1027F00008200090DDE902102B464A46FFF7EDFE67
:10280000601B711B401B491B8DB20BF101011FFAAC
:1028100081FA019980B2491C1FFA81FB032810D369
:10282000801E80B2814603463A465146761E039882
:10283000FFF72BFFB81982B24B4651460398FFF7BA
:1028400024FF032D13D3AD1EADB22B465A4641468D
:10285000641E039800F016F808EB040081B2039898
:1028600007B02B465A46BDE8F04F00F00BB807B052
:10287000BDE8F08F30B4024C446030BC00F0E5B9E4
:10288000E531000838B501240094FFF705FF38BD95
:1028900010B5044690F8930010B12046FFF794FE5F
:1028A0002046BDE81040002100F021B870B50D466B
:1028B0001E460446B0F84E10B0F84C00049B00F0E1
:1028C00052FB002809D0B4F84A10B4F84800334647
:1028D0002A46BDE8704000F046BB70BD10B5044606
:1028E00000F0D1FB2046BDE8104000F040BC10B520
:1028F000044680F83910006B016820468847206B39
:1029000041682046BDE81040084710B50446806D78
:10291000884209D004F17400A16500F07FFB2046D5
:10292000BDE8104000F056B810BD00000149C16577
:1029300070470000C12C00080021A0F85010A0F83A
:1029400054104FF6FF71A0F85210A0F85610016B0A
:102950004968084770B5044600250498A565E362F8
:10296000616384F8382084F8395084F86D5084F815
:10297000915084F88D50012184F8921084F89310BE
:1029800020630168204688472046FFF7D5FF204690
:10299000FFF7CCFF84F8705070BD00007CB50C468A
:1029A000009313460546084A084900F0F0FB01A8C9
:1029B00000F02EFB0146064B00949DF804202846AB
:1029C000FFF7C8FF7CBD00004933000871340008E0
:1029D000812F000810B5816D00291AD090F981303F
:1029E00080F88E3090F9822080F88F2090F88D103A
:1029F00000290ED001290DD090F97E4090F9801069
:102A00000C449C4201DD80F88E408A4201DD80F852
:102A10008F1010BD90F983108B4201DA80F88E1070
:102A200090F98410F1E72BB1012B05D0022B06D0D1
:102A3000104402E0084400E0801A80B27047401A57
:102A4000FBE72BB1012B05D0022B06D0401A02E088
:102A5000104400E0084480B27047801AFBE738B5A4
:102A60000446B0F856000090B4F85230B4F8542040
:102A7000B4F850102046FFF719FF18B3012084F86E
:102A80008C00B4F84810B4F85000814201D2A4F888
:102A90004800B4F84A10B4F85200814201D9A4F8B1
:102AA0004A00B4F84C10B4F85400814201D2A4F8A2
:102AB0004C00B4F84E10B4F85600814201D9A4F885
:102AC0004E0038BD002084F88C0038BD30B5048835
:102AD0000D882544ADB2AC4205D99C4202D25D1EA0
:102AE000ADB200E014469C4201D2954201D80020CC
:102AF00030BD944200D214469D4200D91D46048048
:102B0000281B0880012030BD2DE9FF4FC3F10100D3
:102B100083B006B258429146DDF840A040008B4693
:102B200001271C46CDE9009A00250FFA80F85B4684
:102B30002246294615E0002E08DB08F102000FFAB4
:102B400080F8641E06EB0800A4B206B26D1CBF1C20
:102B50003FB2CDE9009AADB2F01906B25B4622460B
:102B60002946039800F005F8A542E4D307B0BDE874
:102B7000F08F2DE9FF4F83B00E46DDE9108703EBA0
:102B8000060002901546A8EB0600019003EB050035
:102B90001C46F907A8EB050B00900DD002981FFA10
:102BA0008BF281B20398FFF7CDFD019882B20098B5
:102BB00081B20398FFF7C6FDB907A4EB060AA4EBA0
:102BC00005090DD51FFA8BF21FFA8AF10398FFF75A
:102BD000B9FD01981FFA89F182B20398FFF7B2FD9F
:102BE00008EB0504390708EB06050BD50298A2B2DD
:102BF00081B20398FFF7A6FD0098AAB281B20398AC
:102C0000FFF7A0FD78070ED5A2B21FFA8AF103984C
:102C1000FFF798FD039807B0AAB21FFA89F1BDE843
:102C2000F04FFFF78FBD07B0BDE8F08F38B5C58F07
:102C3000049C0094521BC46A92B2A04738BD38B5B8
:102C4000049C0094FFF7F2FF38BD2DE9F0471C46C5
:102C500091468846064600F0DCFC00254FF6FF77DB
:102C600072682178304690470346B84225D0641CEC
:102C7000A3F57F40FE38F3D04A4641463046FFF781
:102C8000CCFC96F8701031B1012907D0022908D088
:102C900003290FD10AE008EB000104E009EB000171
:102CA00006E0A8EB00011FFA81F803E0A9EB0001A0
:102CB0001FFA81F9284485B2D2E72846BDE8F0879B
:102CC0000020704710B50C4600F006F80122641E83
:102CD000A240801A40B210BD30B50568047B2A7846
:102CE000E2406318DBB2082B09D36D1C05602D7818
:102CF000C4F10804A5401543083BEAB2DBB2012445
:102D00008C40641E14400373204630BD2DE9F84307
:102D1000054600F1600400F00CF915F96B6F2046D0
:102D2000E97BFFF7CFFF8146297C2046FFF7CAFFEA
:102D30000746697C20466B3DFFF7C4FF804694F947
:102D40000A00002857DDF019404247B2237CA088D2
:102D50003A464946FFF767FEA080237C3A46E08862
:102D60004946FFF76EFEE080A188277C02460B46AD
:102D700037B1012F0AD0022F40D0032F0FD146E0E8
:102D800094F90A7030443B449BB207E0891B491C0C
:102D900094F90A705B1C89B29BB2384480B20090EF
:102DA0002846FFF783FD30B30020207284F8090025
:102DB00095F876102046FFF78FFF814695F877103B
:102DC0002046FFF789FF074600224946284600F0C3
:102DD00027F801223946284600F022F80121204632
:102DE000FFF77AFF0028EFD194F90900B042DFDB4A
:102DF000A07B85F892004046BDE8F88394F90A70FC
:102E00005B1CC91B491C89B29BB2921B04E094F95C
:102E10000A7033449BB2D21B521C92B2401CBDE7D5
:102E20002DE9F74F84B00D46049C94F8687094F82F
:102E300069806034A07AC01BC6B20196B54200D248
:102E400001954FFA88F279B2A088B4F806B0237CD5
:102E500092468946FFF7E7FD0290237C5246494699
:102E60005846FFF7EEFD0246069808B1A17B02E046
:102E7000607B50B9E17B049880F89210207C009030
:102E8000DDE901310498FFF707FCB54207D3A81B21
:102E9000C5B208F10100002700F0FF08CAE7781961
:102EA000207284F8098007B0BDE8F08F70B50D4638
:102EB0000146806D1730FF2D10D8612D02D3B1F877
:102EC000881003E0412D02D3B1F886100844417800
:102ED00019B30278AA42F9D1801C70BDB1F88A10EA
:102EE0000C1826460021304600F019F8044402214F
:102EF000304600F014F8361DA842F3D34FF6FF72A7
:102F0000207802EA00216078084306D0A84201D167
:102F1000E01C70BDA0780444F2E7002070BD0844B6
:102F20004FF6FF720178407802EA0121084480B22E
:102F3000704730B5054600F160040166002020733B
:102F400015F8781F2046FFF7C7FEA0726978204663
:102F5000FFF7C2FEE072A87EA07310B10020E073FC
:102F600030BD0120FBE78A4205D2834201D89A4254
:102F700003D9012070478342F9D800207047000030
:102F8000F0B502F007060124B440002590F892E065
:102F9000E7B2DDF814C02C46BEF1010F01D83D4662
:102FA00000D03C46076822F00702BCF1000F3F7CCE
:102FB00007FB02F7BAB2476B3A44114409D10878CB
:102FC0005B1E284360401B0401F8010B1B0CF6D16B
:102FD000F0BD0A78761C2A436240A3F101030A700F
:102FE00016F007069BB206D06A06150E6206140E8E
:102FF000002BEED1F0BD428F114490F89220012AAF
:1030000003D800BF4FF00105F2D04FF00104EFE705
:1030100008210170004870476801002070B505461E
:1030200008782870487868708878A870C878E87040
:10303000087928714879687188790C46A871E07917
:10304000E871207A2872607A6872A07AA872E07AB1
:10305000E872207B2873607B6873A07BA873E07B99
:10306000E873207C287411212046FFF758FF6882FE
:1030700013212046FFF753FFA88215212046FFF7B2
:103080004EFFE88270BD2DE9F843064690F838708F
:1030900090F83950006800244FF6FF7890F81190AE
:1030A000316830462A460B7C716B04FB03FC1FFA27
:1030B0008CFC08EACC0C61440091002100F040F83F
:1030C000641C6D1CE4B2EDB2BC4201D24D45E7D3A5
:1030D000BDE8F883F0B590F838204FF6FF75036827
:1030E00005EAC2018187197C05EAC101418790F890
:1030F000394005EAC401C1875E7CA718B74201D9EF
:10310000321B92B205EAC20220F8401F11444180EE
:10311000998A8180D98AC180F0BDFFF7DBBF002189
:10312000A0F84810B0F84410A0F84A10B0F84010C9
:10313000A0F84C10B0F84210A0F84E10FFF78FBC6A
:103140001CB58DF805108DF80620049C8DF8043010
:103150000094012284686B460F21A0471CBD30B447
:1031600084680023A44630BC1A460A21604730B464
:1031700084680023A44630BC1A461021604730B44E
:1031800084680023A4460A4630BC0B2160472DE921
:10319000F04115460E460446069F00F009F86761A7
:1031A000A660C4E903532046BDE8F04100F012B820
:1031B000002140F8081B064A026042608260C2603B
:1031C000C17681770161FF21017780F82010704777
:1031D0007535000830B484680023A44630BC1A4614
:1031E00009216047080001D00A2801D14FF6FF707D
:1031F000704730B404690023A44630BC1A46192134
:10320000604713B50122046901AB1721A0471CBD1B
:1032100030B404690023A44630BC1A461821604724
:1032200038B5184818290DD004DC142907D01729FF
:1032300023D10AE0192916D020291ED11FE0FEF75C
:10324000E5FF1CE00021017019E00F4C08E000BF11
:10325000017813F8015B6554491C521E0170D2B20B
:10326000002AF5D10BE04FF47A7100910378064AF9
:1032700078210648FDF754FC08B1002038BD012034
:1032800038BD0000300000204C000020CC000020A1
:1032900030B4C4680023A44630BC1A4619216047E4
:1032A00030B4C4680023A4460A4630BC16216047E7
:1032B00030B4C4680023A4460A4630BC15216047D8
:1032C00030B4C4681346A4460A4630BC1721604790
:1032D000F8B50C464FEA000514F8011B182924D054
:1032E0000EDC152919D0162917D0172923D12078DB
:1032F0008DF800006A4601212846FFF7E1FF0AE049
:10330000192912D0FE2916D122788DF80020292102
:10331000284600F062F9641CDEE722788DF8002070
:10332000EE6800232846B047F5E70023EE681A460A
:103330002846B047D0E7F8BD30B4C4680023A4469F
:1033400030BC1A46182160472DE9F041DFF8B08003
:1033500014460646A1F11402002798F800001D4605
:10336000062A4AD2DFE802F02F03161B3E4310B1B3
:103370003046FFF73EFF3046FFF74AFF0021304658
:10338000FFF73FFF21463046FFF73BFF012088F85B
:10339000000029E021463046FFF733FF24E050B11A
:1033A0003046FFF726FF06E01821304600F01BF9F3
:1033B000183CE4B21835182C2A46F5D82146304678
:1033C00000F011F90EE096F82400FF2802D17820D1
:1033D00086F8240037692B4622463046BC46BDE8B5
:1033E000F041604788F800700120BDE8F0810028B6
:1033F000F8D03046FFF7FDFEF4E70020F5E70000C7
:103400004400002070B50023456904461A4628216F
:10341000A8470023E5681A4614212046A847012240
:103420004B21204600F0D9F8206829210279204656
:1034300000F0D3F800224B21204600F0CEF820689F
:1034400029210279204600F0C8F801224B212046AC
:1034500000F0C3F82068292142792046BDE8704079
:1034600000F0BBB80160897C80F822107047000032
:1034700070B50C46054600F019F888B9092C0BD038
:103480000A2C01D0002070BD2846FFF7BBFF05497C
:103490002846FFF71DFF03E003492846FFF7E2FF38
:1034A000012070BDAA3C0008AC3D00082DE9F041A8
:1034B0001E46144605460B2908D00D290ED00E29AC
:1034C0001ED00F2927D00020BDE8F0811AB128496D
:1034D000FFF7FEFE4AE02649491FF9E74AB12449B1
:1034E0000C31FFF7F5FE286890F8130085F82200EC
:1034F0003CE01F49491DFFF7EBFE2868807CF5E79B
:10350000FFF71AFF81212846FFF7D2FE2146284601
:10351000FFF7C6FE27E0FFF70FFF707995F822103E
:1035200001EBC000C7B240212846FFF7C1FE1020C2
:1035300040EA17112846FFF7BBFE07F00F012846A7
:10354000FFF7AEFEB07940F0B0012846FFF7A8FEC5
:1035500030793268C006010E2846FFF7B1FE641EBE
:1035600014F0FF04F4D12846FFF792FE0120ABE7E8
:10357000893C00080020704710B54D2919D00CDC9B
:103580002B2918D004DC292920D02A290ED114E0B7
:103590002D290ED04C2909D10BE00022502919D039
:1035A000512917D0522915D0532913D0012180F861
:1035B0002710012010BD00BFFBE700204FF4A071D1
:1035C00000BF401C80B28842FAD3F2E70120FCF72A
:1035D00043FFEEE780F82720EBE730B4446900238F
:1035E000A44630BC60472DE9F04115460E4604461E
:1035F000FFF70EFE40212046FFF703FE27692B460A
:10360000324617212046B8472046BDE8F041FFF773
:10361000F0BD002180F826107047B0F90020B1F904
:1036200000108A4202DA02F1010202E002DDA2F198
:10363000010202807047010202030405060708091F
:103640000A0B0C0D0E0F101000000000000000000F
:103650000102030406070809000000000102030438
:103660005F0003030404030505100FFEFD0BFD0BB3
:10367000FE01C0044005FA2005008C142109B28522
:1036800014074ACC00220843BD15112D012316A7AB
:10369000847891602418099922C148C81409468287
:1036A0009118002417D77C78C18A24328A5062C4CA
:1036B000222D42094D2292620C00251FBC845DC25E
:1036C000A084284A1445A292505814138724C1900C
:1036D000281812C56292605004261ABC847D749129
:1036E000582416C521730869141A856434E1885674
:1036F0002A8900270641BD1304280DD47475A190B2
:1037000028A4B7982C18290ED47415C1982C26D249
:1037100029244A032A0B55B4562929934C21002BFE
:103720000B778C78E1B45B380D002C0852751416B9
:1037300009002D07249C1587002E06328514062FBC
:103740000DB48475996249B1A4580C00300DB7844A
:103750005833891ABF49D446003109B58558129AA1
:10376000FE44320DB7843824514DAAA8DBE1103352
:1037700010B7843824514D2A9491A534D28404344E
:1037800011B78498C2B5882C220A894292A3544862
:103790003511B784389652386524994A69A40909C5
:1037A000003610B7845824118D2A59A9B1952424C4
:1037B00000370FB784180FC1484C2A942A4AD50005
:1037C0003811B78438A4118D6689912236A6110567
:1037D000003910B7845814518DADB222A5914424FC
:1037E000003A0772851426033B09927514268B0450
:1037F000003C0A778CD8C1D1F272003D07379C1883
:10380000F7033E0A778C18E14D8B61003F0EB684BA
:103810003714114928538C033501401DBD849ED6B1
:10382000E14836922849482A1491882292689928BA
:1038300049867248EC20024117BA849B72883C2268
:103840008E8843D1983026B4454551C98C00421525
:10385000B9841A3725994826523B092542895022B6
:103860003B8C004317BA847B95C850229ECF2172AF
:10387000881C22078923435909004419BB841C87EB
:10388000A070241589256289582296882552917046
:103890007288014517B9841A078950228D885244CD
:1038A000C1A228284A91468407024616B9841A07FD
:1038B0008950228D885244C1A228280ACAC55400C2
:1038C0004718BB847C95D050248EC82372901C244A
:1038D0003C8BA4A2D99014014818BB841C348A5490
:1038E0002415494552D1412415494552915442234A
:1038F0004909B485171491FE424A0EB7847944A948
:103900005E44129124B4064B17BB841C24923028C9
:103910008B8AC292785932150D6533E184544C0E6E
:10392000B9841A64B9BE46A411E181004D24BD8456
:103930001E54CA74341D4564115144161145641156
:103940005148121285242151481212C554462202B0
:103950004E1CBB841CD3C934440C4566A1902C1466
:1039600013A54D4241527414968C23004F12BB8410
:103970007CC5D9482A91F32E918A66C31A00501249
:10398000B9841A87906C22940825B2894DAE990AA1
:103990005119EB6C7CC5D9482A91F332938824A243
:1039A00011B10E128527F109005217BB841C87A0A4
:1039B0006C269409658A5699502654134A6A130056
:1039C0005312B9845A94C84C228D482364E731912C
:1039D00052025416BA841B879268A62D2887C821E4
:1039E00072881C2287C869005518BB841CC489389A
:1039F000240E8943E29038240E8943E298305A031A
:103A00005618BA841BB48934248DC982B2A02C2ADA
:103A1000094BC292B81C22045724BD841E14CA4408
:103A2000260BC96421992C268948829288242889EA
:103A300048829288242A13CBC43219005817BB84B9
:103A40001C25CA50268C8AE292F83C220F49833208
:103A5000E184545917BA841BB48934260BCAA29244
:103A6000B0242E87C82172889C065A0FB884198703
:103A7000E19036D53A230E0F035B09D4741526FD69
:103A800027025C0FB68417D170341C0D47C3D17068
:103A9000005D09D4741524FD27035E0F77A478E137
:103AA000E830129388621199005F06177417076057
:103AB0000834C516326100610E7884593491585625
:103AC0009149442B036213B9841A735D66234589B7
:103AD000502294C844111200630E77845824118D2B
:103AE0002A8C884414006413B984BA736D139168E6
:103AF000229408254291683619650E7884593491CC
:103B00004478A8CB441500660DB6845623896E25EB
:103B1000A16E24006710B76CB8928A8C26A9844DD8
:103B200057A1A4026811B9841A735D662335914CBC
:103B30002413C9240C690AA4843522E9482F046A95
:103B40000CD56A75EA337DA34826006B11B8841939
:103B5000639D262215195122134946036C09B4842A
:103B60001523FD0B016D127E841F93D16C345253CB
:103B70009229C994642A1C6E1079841A93D9484DED
:103B80002413C9443209036F0E788459349144C810
:103B90002811C948007013A96C1A93D9485122946E
:103BA00008252395995C4C057113A96C599490686C
:103BB0002294082542916836912B13720B77841753
:103BC0009315558D3400730A7684373722DB050050
:103BD000740FA68456D1A0AC24D414118526007588
:103BE0001179841AA3914C2413C94432916836196F
:103BF000761078831794892C248B498292A85806D2
:103C000077187D831C14CA44260BC96431494412B9
:103C10009444245199582603780F788419A389482D
:103C20004695D26292D1007914A86B1794892C24FE
:103C30008B498292A8581C9404A7007A08768417AE
:103C400037BD1D7B0DD57476A298B6D4A04C312A11
:103C50007C07B1871807027D0FD57416D2A04C31AE
:103C60001A8B690BC9007E0927A43813CA04000007
:103C7000000004FFFF0000001B3100081F31000896
:103C80003F2C00081815AF19FF1815AE19FF1815AD
:103C9000A115C819FF1815A015C019FF1815A115F1
:103CA000C019FF1815A015C819FF1815AE15D5169F
:103CB0008015A8163F15D316001540158D1614153E
:103CC00020160015A115C815DA1612158116CF1584
:103CD000D916F115DB1640152E15A415A619FF18D7
:103CE00015AE15D5168015A8163F15D3160015402C
:103CF000158D16141520160015A115C815DA161203
:103D0000158116EF15D916A115DB1600152E15A471
:103D100015A619FF1815AE15D5168015A8163F154E
:103D2000D316001540158D16141520160015A11573
:103D3000C815DA1602158116CF15D916F115DB163E
:103D400040152E15A415A619FF1815AE15A415D5E6
:103D5000165015A8163F15D31600154015AD168B35
:103D600015D9162215DB16351532158116FF15A645
:103D700015DA161219FF1815AE15D5168015A816E6
:103D80003F15D316001540158D1614152016001575
:103D9000A115C015DA1612158116CF15D916F11511
:103DA000DB1640152E15A415A619FF000001140AF4
:103DB0006464323200127A00000428961008000071
:103DC000800040000001140A6464323200093D00A2
:103DD0000004289610080202800040005049440068
:103DE0004461746100000000486F6D6500000000D0
:103DF0004472696768746E65730000001C3E0008B9
:103E0000000000204C0000006C010008683E000823
:103E10004C0000207C0B00008801000800000A0014
:103E2000000000000000000000000000E83D000865
:103E300008000000E03D000806000000F03D00081A
:103E40000C000000DC3D0008050000000000000040
:103E50000100000010000000000000000024F40039
:083E600000000000000000005A
:0400000508000131BD
:00000001FF
