:020000040800F2
:10000000980B0020D5010008B3240008B51600089D
:10001000B12400081905000813260008000000009C
:10002000000000000000000000000000B7240008ED
:100030001B05000800000000B5240008B9240008D2
:10004000EF010008EF010008EF010008EF010008D0
:10005000EF010008EF010008EF010008EF010008C0
:10006000EF010008EF010008EF010008EF010008B0
:10007000EF010008EF010008EF010008EF010008A0
:10008000EF010008EF010008EF010008EF01000890
:10009000EF010008EF010008EF010008EF01000880
:1000A000EF010008EF010008EF010008EF01000870
:1000B000EF010008EF010008EF010008C516000875
:1000C000B9160008EF010008EF010008EF01000871
:1000D000EF010008EF010008EF010008EF01000840
:1000E000EF010008EF010008EF010008EF01000830
:1000F000EF010008EF010008EF010008EF01000820
:10010000EF010008EF010008EF010008EF0100080F
:10011000EF010008EF010008EF010008EF010008FF
:10012000EF010008EF010008EF010008EF010008EF
:1001300000F002F800F03FF80AA090E8000C8244BA
:100140008344AAF10107DA4501D100F034F8AFF297
:10015000090EBAE80F0013F0010F18BFFB1A43F0A5
:100160000103184784850000A4850000103A24BFCD
:1001700078C878C1FAD8520724BF30C830C144BF0C
:1001800004680C607047000000230024002500264E
:10019000103A28BF78C1FBD8520728BF30C148BFEA
:1001A0000B607047642900F07D80002070471FB508
:1001B0001FBD10B510BD00F074F91146FFF7F7FF31
:1001C00002F0B8FA00F092F903B4FFF7F2FF03BCB3
:1001D00000F09CF90948804709480047FEE7FEE720
:1001E000FEE7FEE7FEE7FEE7FEE7FEE7FEE7FEE7E7
:1001F00004480549054A064B704700001B250008C6
:100200003101000898050020980B00209807002075
:10021000980700200FB41CB5074B06AA7B4469461B
:100220000090059800F025F90020694600F034F9A7
:100230001CBC5DF814FB0000790200002DE9F041C0
:100240000E460446002020622046E168884730B30D
:10025000252805D0D4E901219047206A401CF2E707
:10026000E168204600278847050018D0A5F1410025
:10027000192802D820354FF4006732462946204617
:100280002760FFF78FFF40B1012804D0F61D26F04C
:1002900007060836D8E7361DD6E72846DAE7206A8B
:1002A000BDE8F0812DE9F04106460024106875296B
:1002B000314616A510D0AFF30080002802DA404284
:1002C00013A507E031688A0701D512A502E04907A6
:1002D00004D511A5012401E0AFF3008000210A221A
:1002E00006F1240709E0B0FBF2FCB0FBF2F302FBDD
:1002F0001C00303078541846491C0028F3D123469E
:100300002A463046BDE8F04100F054B80000000035
:100310002D0000002B000000200000004FF0000224
:100320000429C0F0128010F0030C00F01B80CCF107
:10033000040CBCF1020F18BF00F8012BA8BF20F875
:10034000022BA1EB0C0100F00DB85FEAC17C24BFC9
:1003500000F8012B00F8012B48BF00F8012B704773
:100360004FF0000200B5134694469646203922BF4E
:10037000A0E80C50A0E80C50B1F12001BFF4F7AF99
:10038000090728BFA0E80C5048BF0CC05DF804EB7B
:10039000890028BF40F8042B08BF704748BF20F8E9
:1003A000022B11F0804F18BF00F8012B70477047E7
:1003B000704770472DE9F0470D469946924604462E
:1003C00000F124080168880604D5E06921F01001D5
:1003D000216000E00120A84201DD471B00E000276A
:1003E000A1697A1902EB0900081AA0612078C006F9
:1003F00002D42046AFF30080002608E0D4E90121B2
:100400001AF806009047206A401C761C20624E4570
:10041000F4DB2078C0060AD52046AFF3008006E062
:10042000D4E9012130209047206A401C2062381E08
:10043000A7F10107F4DC07E0D4E9012118F8050071
:100440009047206A401C2062281EA5F10105F3DCBC
:100450002046AFF300802078000602D50220BDE8D8
:10046000F0870120FBE7000001694A1C026108785F
:10047000704700B58FB0CDE90131002105910549E4
:100480007944CDE9031011466846FFF7D7FE0FB057
:1004900000BD0000E5FFFFFF0A6802F8010B0A60DB
:1004A0007047754600F02CF8AE4605006946534685
:1004B00020F00700854618B020B5FFF799FEBDE88B
:1004C00020404FF000064FF000074FF000084FF0BB
:1004D000000B21F00701AC46ACE8C009ACE8C0094C
:1004E000ACE8C009ACE8C0098D46704710B50446B9
:1004F000AFF300802046BDE81040FFF765BE000066
:100500000048704738050020704700000149182056
:10051000ABBEFEE726000200FEE7704772B6FEE7BC
:100520002DE9F05F90F821100024022903D0042166
:100530008163012485E001680A6822F00E020A60E6
:1005400001680A6822F001020A603F4E3E4FB21570
:10055000DFF8F4C0DFF8F090DFF8ECA0DFF8E8B0E7
:10056000DFF8E4E00168783F13011502ACF1640C98
:10057000A9F15009AAF13C0AABF1280BAEF1140E17
:100580004FF48018B14227D9B9420ED0614512D03C
:1005900049451DD0514518D0594518D0714501D154
:1005A000424615E0294EB14201D1012210E0274E0A
:1005B0001436B14201D110220AE0244E2836B1424D
:1005C00006D0224A3C32914201D11A4600E02A4626
:1005D0001E49091F0A602BE0B94213D0614517D0AC
:1005E000494522D051451DD059451DD0714501D1F5
:1005F00042461AE0B14202D14FF0807215E0134E2C
:10060000B14201D1012210E0104E1436B14201D1A5
:1006100010220AE00D4E2836B14206D00B4A3C3279
:10062000914201D11A4600E02A46074980394A60C2
:10063000012180F82110002180F82010416B01B1C8
:1006400088472046BDE8F09F800002400804024031
:1006500090F821007047000070B5044600F010F9D2
:100660000546601C02D004480078044400F008F9F4
:10067000401BA042FAD370BD040000202DE9F84FC2
:10068000DFF8C8910024A9F1040B23460F2709F1D4
:10069000040AABF1040ED1E00125A54006EA0502EB
:1006A000AA4276D1DFF8A8C14E68A6EB0C086645D1
:1006B0002BD00DDC032E34D005DC36B3012E19D03F
:1006C000022E2FD11BE0112E16D0122E2AD119E0A6
:1006D000B8F5881F19D006DCB8F5803F15D0B8F5FD
:1006E000801F1FD111E0B8F5001F0ED0B8F5041F10
:1006F00018D10AE0CB6815E0CB681B1D12E0CB686F
:1007000008330FE0CB680C330CE08B682BB1012B66
:100710004FF0080303D0456104E0042302E00561C3
:1007200000E00023FF2A01D8064601E000F104069C
:100730004FEA840501D9A5F12005D6F8008007FA13
:1007400005FC28EA0C0803FA05F548EA0508C6F88E
:1007500000804D68ED0070D53E4DAE6946F0010653
:10076000AE61AD6924F0030605F0010500953A4D30
:1007700006EB050CDCF80850A607360F07FA06F85A
:1007800025EA0805DFF8D480404503D14FF0000882
:1007900025E052E0DFF8C880404502D14FF0010863
:1007A0001DE0DFF8C080404502D14FF0020816E09E
:1007B000DFF8B480404502D14FF003080FE0DFF8C6
:1007C000AC80404502D14FF0040808E0DFF8A0807B
:1007D000404502D14FF0050801E04FF0060808FA45
:1007E00006F848EA0508CCF808804D68D9F800609A
:1007F000ED024D4601D5164300E096432E604D684C
:10080000DAF80060AD02554601D5164300E0964384
:100810002E604D68DBF80060AD035D4601D51643E0
:1008200000E096432E604D68DEF80060ED037546EB
:1008300001D5164300E096432E60641C0A681646F4
:10084000E2407FF429AFBDE8F88F000008040140C2
:10085000000011100010024000000140000801409B
:10086000000C01400010014000140140001801403C
:10087000001C01400AB1016170470904FBE7000058
:1008800001488068704700000400002070477047EE
:100890002DE9F041016804464A694E6890F83E002F
:1008A0000025D743FA050BD4F243D20508D46FF4E0
:1008B000807201254A6121680A6842F400420A6098
:1008C000B90508D4F143C90505D422686FF4007155
:1008D00045F002055161790525D4F143C90522D4BB
:1008E000638D94F83D10226B202808D13BB9212953
:1008F00010D029290ED0282901D1212A0AD0226816
:100900006FF48061516145F00405102806D040283D
:1009100004D008E0204601F037FB04E020680168BD
:1009200041F400710160380508D4F043C00505D4D6
:1009300021686FF4006045F008054861002D07D07C
:10094000206C284320642046BDE8F04100F026BF1B
:10095000BDE8F0812DE9F047026800215368C66ABE
:1009600090F83E4090F83D50102C12D0402C10D002
:10097000046C002C7DD05469E443A6077AD4DE438E
:10098000B60577D4036C03B19169BDE8F04701F077
:10099000D7BA976951694FF42A0CC9435FEAC17805
:1009A0004FF02A4904D066452AD04E4528D010E0A1
:1009B000DE43B6050DD4C16A614501D1012103E0D2
:1009C000C16A494501D10821C162BDE8F04701F083
:1009D0001DBA0E0716D4DE43B60513D4416CC9B256
:1009E0001161416B09B1896A29B9816B002907D06E
:1009F000896A002904D00068416841F400614160BF
:100A0000BDE8F0878E0706D4DE43B60503D4BDE803
:100A1000F04701F04FB9FE43526876074FEA0252A1
:100A20001DD4002AECDB0A0608D4DA43520505D4AB
:100A3000490705D5BDE8F04701F0E0B84907DFD424
:100A4000D9438905DCD4212D05D0402CD8D1BDE86F
:100A5000F04701F021BABDE8F04701F08DB8002A57
:100A6000CEDB4A060BD4DA43520508D4490708D531
:100A700001E00DE00EE0BDE8F04700F0BBBF490724
:100A8000BED4D9438905BBD4BDE8F04700F049BFC7
:100A9000916970E7E10606D4D943890503D4BDE81E
:100AA000F04701F0B9BA2821212D27D0292D25D0D2
:100AB000650655D4DD436D0552D4640752D590F8D0
:100AC0003D30448D002C9BD01269446A2270426AEA
:100AD000521C4262428D521E4285428D002A8FD1A5
:100AE0002A2B8DD10268536823F48063536022223D
:100AF000026380F83D1000F0E5F981E7250623D474
:100B0000DD436D0520D4640720D590F83D30448D39
:100B1000002CF2D0446A24781461426A521C42626A
:100B2000428D521E4285428D002AE6D1292BE4D106
:100B30000268536823F4806353602122026380F8C3
:100B40003D1000F0C0F95BE76107D6D4D9438905B1
:100B5000D3D4418D0029D0D0416A097811610AE0CF
:100B60006107CAD4D9438905C7D4418D0029C4D0AF
:100B70001169426A1170416A491C4162418D491EE6
:100B800041853DE77047000070B5040025D094F81A
:100B90003D00002520B984F83C50204600F054F96F
:100BA000242084F83D002068016821F001010160E3
:100BB0002068016841F4004101602068016821F467
:100BC0000041016000F0AEFA4D4A6168914201D8DF
:100BD0004C4900E04C49884201D2012070BD4B498C
:100BE0002368B0FBF1F15E6826F03F060E435E60BD
:100BF0006368934206D94FF4967359434FF47A735E
:100C0000B1FBF3F12368491C1E6A26F03F0631430D
:100C100019626168914210D84900401EB0FBF1F2A0
:100C2000521CC2F30B02042A01D2042022E0B0FBC2
:100C3000F1F0401CC0F30B001CE0A268F2B301EB22
:100C4000C10303EB0116431EB3FBF6F35B1C43F435
:100C500080431B0549D092B301EBC10202EB0111A5
:100C6000401EB0FBF1F0401CC0F30B0040F480408C
:100C700040F400402168CA694CF6FF739A43104360
:100C8000C861D4E9071001432068026822F0C0025D
:100C900011430160D4E9030101432068826848F2EE
:100CA000FF339A4311438160D4E905010843216869
:100CB000CA6822F0FF021043C86001E00EE016E0AF
:100CC0002068016841F0010101602564202084F85A
:100CD0003D00256384F83E50002070BD01EB4106C5
:100CE000431EB3FBF6F35B1CB3E70120C2E701EB45
:100CF0004101401EB0FBF1F0401CC0F30B00B7E710
:100D0000A086010080841E0000093D0040420F00C3
:100D100070477047704700002DE9F84F1F46904616
:100D20008A460446DDF82890FFF7AAFD054694F8A8
:100D30003D0020287FD119230122404920460095FB
:100D400001F044FA002876D194F83C00012872D0D2
:100D5000012084F83C0020680168C90703D10168BC
:100D600041F0010101602068016821F40061016027
:100D7000212084F83D00102084F83E0000262664DF
:100D8000C4F824806785608D20852D48E0622B465D
:100D90004A465146204600F0A1FE90B920684169BC
:100DA0008069009036E02A464946204601F0B4FAB0
:100DB00050B1206C042804D12068016841F400710E
:100DC00001600120BDE8F88F606A21680078086141
:100DD000606A401C6062618D491E6185218D491EDB
:100DE00089B2218522685369DB435B070BD451B17B
:100DF00000781061606A401C6062608D401E6085F2
:100E0000208D401E20852A464946204601F0B2F931
:100E10000028CED1208D0028C5D154F83D0B0168A3
:100E200041F400710160202004F81E09E67766771E
:100E30000020C7E7FFE70220C4E70000020010001F
:100E40000000FFFF7047704710B586B00021009189
:100E50000191029103910068174988422AD1174CE9
:100E6000A06940F00800A061A069694600F0080090
:100E70000490C0200090122001900320039010489D
:100E8000FFF7FCFBE06940F40010E061E06900223C
:100E900000F40010049011461F2000F07BF81F2082
:100EA00000F06AF800221146202000F073F820209C
:100EB00000F062F806B010BD00540040001002407F
:100EC000000C014070477047024881680278114465
:100ED0008160704704000020074810B5016841F0A8
:100EE00010010160032000F075F80F2000F006F8F3
:100EF00000F024F8002010BD0020024070B50D4D18
:100F000004464FF47A712878B1FBF0F00A49096879
:100F1000B1FBF0F000F0CCFA48B9102C07D2002257
:100F20002146501E00F036F800206C6070BD012094
:100F300070BD000004000020100000200C4808B51F
:100F4000816941F001018161816901F00101009134
:100F5000C16941F08051C161C06900F080500090CA
:100F60000448416821F0E06141F00071416008BD32
:100F70000010024000000140002809DB00F01F02C1
:100F8000012191404009800000F1E020C0F80011EB
:100F900070470000F0B40E4B1B680C46C3F30223ED
:100FA000C3F10705042D00D90425191D072901D215
:100FB000002300E0DB1E012606FA05F1491E214050
:100FC00099409E40761E16403143F0BC01F022BB92
:100FD0000CED00E0064900F0070208684FF6FF0339
:100FE000184040EA0220034A10430860704700009E
:100FF0000CED00E00000FA052DE9F0470F46050072
:1010000061D0434E306800F00700B84209D2306822
:1010100020F0070038433060306800F00700B84225
:1010200051D128683B4C810712D5400703D5606831
:1010300040F4E06060602878000703D5606840F401
:10104000605060606068A96820F0F000084360604C
:101050002878C00728D06868012810D021680228A5
:1010600010D0890700292EDA616821F003010143BD
:101070006160FFF705FC804641F288390DE0216888
:101080008903EFE78901EDE7FFF7FAFBA0EB080121
:10109000494502D90320BDE8F0876068696800F01F
:1010A0000C00B0EB810FEFD1306800F00700B842C0
:1010B0000BD9306820F0070038433060306800F00A
:1010C0000700B84201D00120E5E72878400705D5A0
:1010D0006068E96820F4E0600843606028780007F1
:1010E00006D56068296920F4605040EAC10060605C
:1010F00000F028F86168084AC1F30311515CC84048
:101100000649086006480068FFF7F8FE0020C2E7BD
:1011100000200240001002404F460008100000204E
:10112000080000200448054900684968044AC1F3E2
:101130000221515CC840704710000020001002409E
:101140005F4600080E4A51680E4801F00C03042B5C
:1011500011D0082B0FD10C48C1F38343C903C05CE5
:101160000AD55168084AC1F34041921E515C054AB4
:101170005043B0FBF1F0704704494843704700000A
:101180000010024000127A003F46000800093D00AE
:101190002DE9F84F040070D02078C04DC00749D029
:1011A0006868C0F38100012807D06868C0F3810037
:1011B000022809D16868C00306D52868800339D59C
:1011C00060680028E7D035E06068B0F5803F0BD05C
:1011D00010B1B0F5A02F11D0286820F4803028601D
:1011E000286820F4802002E0286840F480302860DD
:1011F000606890B1FFF744FB06460AE0286840F4B7
:1012000080202860F0E700BFFFF73AFB801B6428CE
:1012100073D828688003F7D50CE0FFF731FB06464A
:1012200005E000BFFFF72CFB801B6428F0D828687E
:101230008003F7D420789A4E80074FF001094FF0D1
:10124000000839D5686810F00C0F07D06868C0F343
:101250008100022809D16868C00306D42868800785
:1012600014D52069012808D110E02069B0B1C6F872
:101270000090FFF705FB074605E00AE1FFF700FBDA
:10128000C01B0228C4D828688007F7D52868616980
:1012900020F0F80040EAC10028600DE0C6F80080A8
:1012A000FFF7EEFA074604E0FFF7EAFAC01B022850
:1012B00023D828688007F7D4207800072CD57948F0
:1012C000A169D9B1C0F80090FFF7DAFA074604E047
:1012D000FFF7D6FAC01B02280FD8686A8007F7D537
:1012E00071484FF4FA510068B0FBF1F0009000BF74
:1012F0000098411E0091FAD20EE080E0C0F8008014
:10130000FFF7BEFA074604E0FFF7BAFAC01B02284F
:1013100075D8686A8007F7D42078400760D5E869F7
:101320000027C00008D4E86940F08050E861E8690F
:10133000012700F0805000905C480168C90513D473
:101340000168834641F480710160FFF799FA824693
:1013500006E000BFFFF794FAA0EB0A0064284ED81D
:10136000DBF80000C005F5D5E06801280AD008B117
:10137000052813D0286A20F001002862286A20F08E
:10138000040002E0286A40F001002862E06841F2AF
:10139000883B98B1FFF774FA82460BE0286A40F068
:1013A00004002862EEE700BFFFF76AFAA0EB0A012B
:1013B00059455AD8286A8007F6D50CE0FFF760FA3D
:1013C000824605E0FFF75CFAA0EB0A0159454CD8CC
:1013D000286A8007F6D41FB1E86920F08050E861E0
:1013E000E06988B36968C1F38101022944D0022809
:1013F000C6F8608004D0FFF743FA044638E034E0D2
:10140000FFF73EFA074604E0FFF73AFAC01B02284E
:101410002BD828688001F7D4206AB0F5803F05D129
:101420006868A16820F4003008436860D4E90801C6
:101430000843696821F4741108436860C6F8609035
:10144000FFF71EFA044606E025E000BFFFF718FA92
:10145000001B022809D828688001F7D51BE000BFCF
:10146000FFF70EFA001B022802D90320BDE8F88F0F
:1014700028688001F4D40EE00128F7D06868226A59
:1014800000F48031914204D1616A00F47010884206
:1014900001D00120EAE70020E8E700000010024048
:1014A00000004242800442421000002000700040D0
:1014B00010B5401EB0F1807F01D3012010BD4FF068
:1014C000E02460610F21601701F0A4F80020A06102
:1014D00007202061002010BD70B590F83C20012A43
:1014E0002CD0012480F83C40022280F83D20036883
:1014F0005A689D6822F070060A6832435A60104BA1
:1015000002689A420ED00F4B9A420BD0B2F1804F34
:1015100008D00D4B9A4205D00C4B9A4202D00C4B8E
:101520009A4204D1496825F080031943916080F8FC
:101530003D40002180F83C10084670BD022070BD7F
:10154000002C01400034014000040040000800402D
:10155000000C004010B5040003D094F83D0010B119
:1015600007E0012010BD002084F83C00204600F078
:101570001FF8022084F83D00211D206800F0CEFFF6
:10158000012084F8460084F83E0084F83F0084F887
:10159000400084F8410084F8420084F8430084F855
:1015A000440084F8450084F83D00002010BD000090
:1015B00008B500680649884208D10648816941F4A7
:1015C00000618161806900F40060009008BD000046
:1015D000002C01400010024070B5044690F83C0019
:1015E0000025012817D0012684F83C60022084F8E9
:1015F0003D002068826822F0770222F47F428260F8
:101600000868502838D00DDC20284FD005DC90B376
:10161000102811D14AE0022070BD302846D0402861
:101620000AD13BE060282FD070280DD0B0F5805F44
:1016300003D0B0F5005F12D0012584F83D60002092
:1016400084F83C00284670BDCB68D1E901212068B0
:1016500000F0AAFF2068816841F0770109E0CB68BB
:10166000D1E90121206800F09FFF2068816841F4E2
:1016700080418160E1E719E0CA684968206800F0AC
:10168000A5FF5021206806E0CA684968206800F07C
:10169000AEFF6021206800F091FFCEE7CA6849687C
:1016A000206800F093FF40212068F4E7226801469B
:1016B0001046F0E7FEE700000148FFF7E9B8000038
:1016C000E40000200148FFF745B90000E4000020D5
:1016D00038B5406A002190F83D202B4B46F2A81403
:1016E0001B68B3FBF4F3C3EBC30303EB8303009367
:1016F0003BB15B1E009303681B689B0505D5009BEF
:10170000F6E7036C43F020030364436B03B1996273
:10171000836B03B1996203681C6824F480641C60C5
:101720004185436B03B15963836B03B1596303680C
:101730001C6824F001041C6090F83D402023602CBC
:101740000BD0282434EA02020FD080F83D3080F814
:101750003E1000BFFFF716FA38BD80F83D3080F824
:101760003E100164FFF792F838BD0268136843F039
:10177000010313600268136843F48063136001631C
:1017800080F83D40E6E70000100000200068416955
:10179000C943090601D400210161704770B50446B0
:1017A00090F83D0094F83E10102901D0402906D150
:1017B000222804D121680A6822F400620A602821E4
:1017C00031EA00024FF000054FF0200626D02168D4
:1017D0004968090505D4602803D084F83D6084F881
:1017E0003E50256320684168090537D5416821F4DA
:1017F00000614160606B90F821203C49012A11D0C2
:101800004163606BFEF78CFE38B32068016821F0FD
:101810000101016084F83D60606B1CE0256384F881
:101820003D10DFE7A06B4163A06BFEF779FEA0B12E
:1018300020684169C943490605D40069616A087096
:10184000606A401C60622068016821F0010101604B
:1018500084F83D60A06B416B884710E094F83D1020
:10186000602910D04169C943490605D40069616AFD
:101870000870606A401C60622046FFF783F9206CA4
:10188000C1071CD115E084F83D6025644169C94356
:10189000490605D40069616A0870606A401C60628C
:1018A0002068016821F0010101602046FEF7EEFF8B
:1018B000E5E7810703D4410701D4000704D5206878
:1018C000416821F4E061416094F83D00216C4907D2
:1018D0000BD5282809D10648E062256384F83D60CD
:1018E00084F83E502046FFF713FA70BDD116000869
:1018F0000000FFFF01684A69D24352050FD46FF41C
:1019000080624A61002140F8301F202242738173B7
:10191000026942F004020261017301207047002055
:10192000704710B5C26A438D0168042B06D0438D01
:10193000032B08D0438D022B1DD012E04A6822F4FD
:1019400080624A600CE04B6823F480634B60042A99
:1019500006D0022A04D001680A6822F480620A6074
:1019600001680969426A1170416A491C4162418DEE
:10197000491E418510BD012A30D0102A2ED0042ADC
:1019800030D0022A2ED00A6842F400720A60016840
:101990000969426A1170416A491C4162428D521EB6
:1019A0004285026812690A70416A491C4162418D90
:1019B000491E418501684A6822F440724A6020212C
:1019C00080F83D1090F83E200021402A80F83E101B
:1019D0000CD012210163FFF79CF910BD0A6822F4B4
:1019E0008062D3E70A6842F48062CFE70163FFF7C1
:1019F00029FA10BD38B590F83D1022290FD1418D3C
:101A000003290DD901680969426A1170416A491CAC
:101A10004162418D491E4185418D032906D038BD63
:101A2000C26A022A02D0012906D029B100684168A1
:101A300021F48061416038BD274946F2A813002295
:101A40000968B1FBF3F101EB8101009101682023EA
:101A5000009C641E009422D00C68A405F8D40C6885
:101A600024F480640C6001684C6824F4E0644C60E9
:101A700001680969446A2170416A491C4162418DCB
:101A8000491E418580F83D3090F83E1080F83E2098
:101A900040291DD012210163FFF73BF938BD046CCA
:101AA00044F0200404644C6824F4E0644C60016851
:101AB0000969446A2170416A491C4162418D491E8D
:101AC000418580F83D3080F83E20FFF75BF838BD57
:101AD0000263FFF7B7F938BD10000020F8B50446DF
:101AE000C06A1E460D461746082807D0012805D0B3
:101AF00010F5803F02D0206B122804D120680168C5
:101B000041F480710160134600224FF0011120461C
:101B1000009600F05BFB40B120680068C00502D56C
:101B20004FF4007020640320F8BD2069B0F5804FA9
:101B30000ED00620216800EAD51040F0F0000861C0
:101B400033463A460B49204600F088FB78B902E05C
:101B500005F0FE0000E0E8B221680861054933465F
:101B60003A46891F204600F079FB0028DCD001208E
:101B7000F8BD00000800010010B5C26A90F83D10E1
:101B800021290BD1418D51B1416A02680978116157
:101B9000416A491C4162418D491E418510BD202387
:101BA0000021082A13D0202A11D012F5803F0ED030
:101BB0000268546824F4E06454601122026380F8DF
:101BC0003E1080F83D3000BFFFF7A4F810BD02685A
:101BD000546824F4E06454600268146844F40074A7
:101BE0001460016380F83D3090F83E2080F83E108C
:101BF000402AE9D1FFF727F910BD000010B590F891
:101C00003D1090F83E30C26A048DB4B1212903D052
:101C1000402B11D122290FD1418DE1B390F83E1014
:101C2000402942D0416A026809781161416A491C21
:101C30004162418D491E418510BD2129E8D12023F3
:101C40000021082A13D0202A11D012F5803F0ED08F
:101C50000268546824F4E06454601122026380F83E
:101C60003E1080F83D3000BFFFF754F810BD026809
:101C7000546824F4E06454600268146844F4007406
:101C80001460016380F83D3090F83E2080F83E10EB
:101C9000402AE9D100E002E0FFF7D5F810BD006866
:101CA000416821F48061416010BDBDE8104000F042
:101CB000F3B8000078B590F83E50C26A046B90F813
:101CC0003D6000230168222E73D1066D0EB9402DB0
:101CD0006FD0056D1DB90569B5F5404F1BD0458D19
:101CE00095B3468D484D012E20D0448D022C4DD009
:101CF0000C6844F480640C6001684C68240579D554
:101D0000AA4273D0012A71D0082A6FD0102A6DD050
:101D1000202A6BD06EE04A698A6900920A6842F410
:101D200080720A60016D491C016578BDAA4214D118
:101D30000A6822F480620A6001684A68120504D5C4
:101D40000A6822F4806217E0FFE74A698A69009214
:101D50000A6842F400720A6050E0082A10D0202A73
:101D60000ED0122C0AD0042A03D0022A01D0102A45
:101D7000E6D10A6842F480620A603BE0012ADFD0C3
:101D80000A6822F480620A600168DEE7042A11D042
:101D9000022A0FD0102A0DD00C6844F400640C60A5
:101DA00001684C698C6900940C6824F480640C60B0
:101DB00008E025E00C6844F480640C6001684C691C
:101DC0008969009101684C68240517D5AA4207D09B
:101DD000012A05D0082A03D0102A01D0202A0DD1CB
:101DE0004A6842F480524A6008E0FFE74A6842F4D9
:101DF00080524A6001684A6989690091036578BD2B
:101E000048698869009078BD0000FFFF90F83E1097
:101E1000402910D00169B1F5804F19D0016DA9B3E7
:101E2000016D012910D1416C5FF0F10201F44071A4
:101E300042EAD11106E0016D0029416C05D0C9B21A
:101E400041F0010100680161704701F0FE01F9E70E
:101E500090F83D102129416C09D0C9B241F001012F
:101E600002681161416B29B1896A49B902E001F048
:101E7000FE01F5E7816B0029E6D0896A0029E3D0ED
:101E80000068416841F4006141607047FFE7416CC0
:101E9000F02201F44071CBE710B590F83D10026DCF
:101EA0004AB1026D012A14D0026D022A16D0BDE893
:101EB0001040FFF76BBCC16C0129816C02D0C1F3EB
:101EC000072108E00268C9B21161016D891C016532
:101ED00010BD816CC9B20268116123E022291CD0B7
:101EE000428D0AB1212920D0428D002AF0D121292A
:101EF000EED101684A6822F4E0624A6001680A682B
:101F000042F400720A6000210163202280F83D2023
:101F100080F83E10FEF797FF10BD01680A6842F492
:101F200080720A60016D491CD1E7416A0268097834
:101F30001161416A491C4162418D491E418510BDB4
:101F400038B50C4690F83D200021282595430268BD
:101F50000B4605D051699169009180F83C3038BD3D
:101F6000556825F480655560E243540700D501218A
:101F7000120601D5828900E0028B80F83C3092B2D3
:101F8000FEF785FC38BD00002DE9F04190F83D30AA
:101F90000446C26A002120261E4F00686FF4806547
:101FA000082A01D0202A01D1282B04D0212B17D0B8
:101FB0004561BDE8F081E762426822F4E062426078
:101FC000206845612068026822F480620260216313
:101FD00084F83D6084F83E102046FEF799FEE8E75D
:101FE000E7622122226384F83D6084F83E10416854
:101FF00021F4E0614160206845612068016821F4B6
:10200000806101602046FFF7C1FB2046FEF75BFFC1
:10201000CFE700000000FFFFF8B590F83D600446F0
:102020000068416821F4E061416020680025416951
:102030000091016841F0010101602068016821F40C
:102040008061016020684168090520D5474F222E34
:1020500048D02A2E46D0616B096849686185618D38
:1020600019B1216C41F004012164416821F400613F
:102070004160606BFEF7ECFA012808D0606B4763A3
:10208000606BFEF74DFA10B1606B416B8847608D55
:1020900008B320684169C943490708D40069616AE7
:1020A0000870606A401C6062608D401E6085206818
:1020B0004169C943490608D40069616A0870606AC9
:1020C000401C6062608D401E6085608D18B1206C80
:1020D00040F004002064206C00B32046BDE8F840C6
:1020E000FFF75CBBA16B096849686185618D19B117
:1020F000216C41F004012164416821F400614160D8
:10210000A06BFEF7A5FA0128C1D0A06B4763A06BB6
:10211000FEF706FA0028BAD0A06BB6E72A2E06D141
:102120002563282084F83D002046FEF7CBFE94F876
:102130003D10202028290DD0216B222901D0222EEC
:1021400007D1256384F83D0084F83E502046FEF711
:10215000B9FEF8BD0649E162256384F83D0084F8C4
:102160003E502046FEF7D4FDF8BD0000D116000811
:102170000000FFFF70B516460D4604461EE02046DF
:10218000FFF7B8FB08B1012070BD681C16D0FEF740
:1021900077FB801BA84200D885B920684069C043FE
:1021A00040070BD5002044F8300F20216173A07345
:1021B000216941F0200121612073E4E72068406932
:1021C000C0434007DBD4002070BD00002DE9F0477C
:1021D000984617460D460446C1F30746DDF82090A1
:1021E0002AE000BFB8F1FF3F26D0FEF749FBA0EB85
:1021F0000901414502D8B8F1000F1DD12068012E18
:1022000016D0806925EA00000004000C12D00020DE
:10221000B84211D1002044F8300F20216173A0731F
:10222000216941F02001216120730120BDE8F08780
:102230004069E7E70120EBE72068012E0AD08069BA
:1022400025EA00000004000C06D00020B842C9D0E6
:102250000020EBE74069F3E70120F7E72DE9F047BD
:10226000984616460D4604464FF000094FF0200AE6
:10227000C1F3074723E020684069C043400515D4F7
:102280002068016841F40071016021686FF480608A
:102290004861C4F8309084F83DA084F83E90216CE9
:1022A00041F00401216484F83C9021E0701C06D0C8
:1022B000FEF7E6FAA0EB0800B04203D816B1012FF2
:1022C0001FD021E02068012F15D0806925EA000089
:1022D0000004000C18D000BF44F8309F84F80DA013
:1022E00084F80E90216941F02001216184F80C905E
:1022F0000120BDE8F087406925EA00000004000CD9
:10230000EAD12068406901E02068806925EA000080
:102310000004000CAFD1ECE770B516460D4604463C
:102320001EE02046FFF7E6FA08B1012070BD681CE8
:1023300016D0FEF7A5FA801BA84200D885B9206800
:102340004069C04300060BD5002044F8300F20211F
:102350006173A073216941F0200121612073E4E7DA
:1023600020684069C0430006DBD4002070BD000037
:102370002DE9F04186B00024204800940194029495
:102380000394816941F020018161816901F020019C
:102390000491816941F010018161816901F01001AE
:1023A0000491816941F004018161816901F00401B6
:1023B0000491816941F0080181618069DFF8408002
:1023C00000F008004FF48077049000223946404620
:1023D000FEF750FA0225CDE9005401266946094866
:1023E0000296FEF74BF9CDE9007669464046CDE905
:1023F0000245FEF743F906B0BDE8F0810010024047
:1024000000080140001001400D4810B50B49016063
:102410000C49416000214FF480428160C0E9031201
:1024200041618161C1610162FEF7AEFB002803D00A
:10243000BDE81040FEF772B810BD00000054004027
:10244000E4000020801A060010B586B0002417486A
:102450000094019402940394049413490594016038
:102460004721C0E901144FF6FF71C0E9031444612C
:102470008461FFF76FF808B1FEF750F84FF4805011
:10248000009069460948FFF7A7F808B1FEF746F83B
:10249000049404A905480594FFF71EF8002801D00C
:1024A000FEF73CF806B010BD002C01409C00002057
:1024B000FEE7FEE770477047FEF706BD30B58FB008
:1024C00028216846FDF74CFF14210AA8FDF748FFB4
:1024D00001210804CDE90010002402940225049192
:1024E000CDE907504FF4E01009906846FEF750FE22
:1024F00008B172B6FEE70F20CDE90A054FF48060FF
:10250000CDE90C4002210AA80E94FEF775FD0028C3
:1025100001D072B6FEE70FB030BD7047F0B502686B
:102520001C4B1D4D1D4E1E4F1E4C4FF0804C9842B3
:1025300009D0A04207D0604505D0A84203D0B042E0
:1025400001D0B84204D122F0700E4A6842EA0E026D
:10255000984209D0A04207D0604505D0A84203D0D8
:10256000B04201D0B84203D122F44075CA682A4370
:102570004D6922F080022A4302608A68C2620A68BA
:102580008262984201D0A04201D109690163012110
:102590004161F0BD002C01400004004000080040F3
:1025A000000C00400034014010B5846842EA032268
:1025B00024F47F440A432243826010BD826822F0E3
:1025C00070020A4342F007018160704710B5036A48
:1025D000046A24F001040462846924F0F00444EAEB
:1025E000021423F00A020A438461026210BD10B58E
:1025F000036A046A24F010040462846923F0A003CF
:1026000024F4704444EA023243EA01118261016217
:1026100010BDFEE70907090E002804DB00F1E020E9
:1026200080F80014704700F00F0000F1E02080F8FF
:10263000141D704710B5044600F0A2F90121204690
:1026400000F0E1FB0021204600F0DAFB2B49204698
:1026500000F0C6FB2AA314220021204600F030FB24
:102660000121204600F0CCFB2649204600F0B8FBB3
:1026700025A308221521204600F022FB0021204638
:1026800000F0BEFB1D49204600F0AAFB1FA31E223E
:102690003321204600F014FB1DA31E2243212046B7
:1026A00000F00EFB2F2323220221204600F0C9F95F
:1026B0002F2324220321204600F0C3F90C232022DB
:1026C0002D21204600F004FB0C2321222E21204640
:1026D00000F0FEFA0F49204600F082FB0EA33622DE
:1026E0000121204600F0ECFA204600F062FBBDE834
:1026F00010404FF47A70FDF7AFBF0000E85F0008AC
:10270000550000005D8200083800000067000000EE
:10271000B20000005D4D00086769746875622E6341
:102720006F6D2F6F6C696B726175732F75386732BF
:1027300000000000A6B0FEF7CFFBFFF7BFFEFFF7DB
:1027400017FEFFF761FEFFF77FFE684600F0FEF818
:10275000684600F0E9FA6846FFF76CFF684600F04B
:10276000E9F8684600F006FB0028F4D1FEE7000017
:102770002DE9F0430A241D4FDFF8748087B08146AD
:1027800025460426484600F0FBF8204601F03DFBB4
:1027900000223B4601F0B2F90022434601F04CFB17
:1027A00001F004FB024613A102A8FDF733FD134913
:1027B000484600F015FB02AB31226421484600F088
:1027C0007FFACDE90056502328221021484600F018
:1027D000F6F9484600F0EDFAA41C502CD2DD07B003
:1027E0004FF4FA70BDE8F043FDF736BF00005440E7
:1027F00000005940256425250000000030500008E5
:102800007CB506464FF47A7500F0BAF817A30E228D
:102810000021304600F054FA15483024CDE900403C
:10282000802310220021304600F058FA304600F094
:10283000C0FA2846FDF710FF304600F0A1F80DA3BE
:102840000E220021304600F03BFA0D488023CDE9EE
:10285000004010220021304600F040FA304600F0DF
:10286000A8FA2846BDE87C40FDF7F6BE58480000AF
:102870003440000862696C6962696C2D485A4400F2
:102880003443000830B523A187B00546D1E90001E3
:10289000CDE9030121A14FF47A74D1E90001CDE91A
:1028A0000501204807C88DE80700284600F068F8B1
:1028B0001D49284600F094FA03AB05220A21284658
:1028C00000F0FEF9284600F074FA2046FDF7C4FE39
:1028D0001649284600F084FA05AB1E220A21284634
:1028E00000F0EEF9284600F064FA2046FDF7B4FE49
:1028F0000F49284600F074FA6B463C220A2128460C
:1029000000F0DEF9284600F054FA2046FDF7A4FE58
:1029100007B030BD796F7520617265007265616CBA
:102920006C79000034460008674600083050000803
:10293000D159000810B50446FFF71AFF2046FFF7EB
:10294000A1FF2046BDE81040FFF75ABF10B504466E
:10295000084B094A094900F091FA204600F06FFE41
:102960000021204600F07BFE2046BDE8104000F02C
:1029700007B80000593A00080137000884850008AC
:1029800001680A7C90F83810406B5143C900FDF78C
:10299000C5BC2DE9F8431C4680461019401C80B286
:1029A00000900819401C83B21546101B82B20E46D7
:1029B000081B81B2089F404600F0C4F9002806D0E9
:1029C00023462A4631464046009700F00DFBBDE8FD
:1029D000F8832DE9F041044690F870001F46154633
:1029E0000E4630B1012809D002280CD0032815D199
:1029F0000FE0E16D20468847284408E0E16D20465D
:102A00008847301A09E0E16D20468847281A85B2C8
:102A100004E0E16D20468847304486B22846A4F899
:102A20006460A4F8660039460025204600F0AEFC3C
:102A3000010003D0204600F0D9FB85B22846BDE84E
:102A4000F08138B50024009400F002F838BD000091
:102A50003FB581B0044690F88C00089900283AD020
:102A6000BDF81000002836D0012811D9022902D063
:102A7000032907D00CE0BDF80820101A401CADF85F
:102A8000080005E0BDF80C20101A401CADF80C0041
:102A900011F0010521D0B4F84810BDF808008142BA
:102AA00019D8B4F84A10814215D9B4F84E30B4F8A8
:102AB0004C2004A90DF10C0000F078FA00280AD08F
:102AC0000095206BBDF81030BDF80C208568BDF86E
:102AD00008102046A84705B030BDB4F84C10BDF82A
:102AE0000C008142F7D8B4F84E108142F3D9B4F803
:102AF0004A30B4F8482004A902A8DDE72DE9FF4FC9
:102B000081B090F89270DDF838901D4688460646F0
:102B10009FB10020834603984146401C80B200903C
:102B200008EB050083B23046039A00F00BF9002849
:102B30002BD001244FF0000A23E00120EAE700BF78
:102B400099F80000204202D086F8927004E096F8CE
:102B5000910048B986F892B00123CDF800A0414613
:102B60003046039AFFF774FF08F101001FFA80F85E
:102B7000600010F0FF0402D1012409F101096D1E6B
:102B8000ADB2002DDCD186F8927005B0BDE8F08FB3
:102B900008B5B0F84C30934210D8B0F84E3093429C
:102BA0000CD9B0F848308B4208D8B0F84A308B4284
:102BB00004D9002300930123FFF74AFF08BD2DE944
:102BC000FF4F83B01C46DDE9106502EB060A1FFAD1
:102BD0008AF001EB04090090174688461FFA89F332
:102BE000039800F0AFF8002867D008EB05001FFA43
:102BF00080FB781981B2A9EB0500401E80B2CDE9B7
:102C00000110AAEB0500401E1FFA80F902200A46B7
:102C100000902B4659460398FFF7BBFE0120009019
:102C2000DDE902102B46019AFFF7B3FE0420009065
:102C30002B464A4659460398FFF7ABFE0820009002
:102C4000DDE902102B464A46FFF7A3FE601B711B0D
:102C5000401B491B8DB20BF101011FFA81FA01994A
:102C600080B2491C1FFA81FB032810D3801E80B25A
:102C7000814603463A465146761E0398FFF7E1FE29
:102C8000B81982B24B4651460398FFF7DAFE032D7E
:102C900013D3AD1EADB22B465A464146641E03986F
:102CA00000F016F808EB040081B2039807B02B4639
:102CB0005A46BDE8F04F00F00BB807B0BDE8F08F02
:102CC00030B4024C446030BC00F02FBAC536000866
:102CD00038B501240094FFF7BBFE38BD2DE9F84F4D
:102CE0008246DDE90A57D81DC0F3CC08501980B2DE
:102CF0001C460090081983B216468946504600F0DB
:102D000021F800280ED00BE02346324649465046B3
:102D10000097FFF7F3FE761C6D1E4744B6B2ADB2C6
:102D2000002DF1D1BDE8F88F10B5044690F893005E
:102D300010B12046FFF724FE2046BDE810400021D8
:102D400000F040B870B50D461E460446B0F84E106F
:102D5000B0F84C00049B00F076FB002809D0B4F8D2
:102D60004A10B4F8480033462A46BDE8704000F0E7
:102D70006ABB70BD70B5044600F0F5FB94F83900ED
:102D800094F838100844C5B22068407CA84204D8A2
:102D9000204600F05CFC002070BD94F8930010B158
:102DA0002046FFF7EDFD2946204600F00BF80120F4
:102DB00070BD10B5044600F0D6FB2046BDE81040BB
:102DC00000F045BC10B5044680F83910006B01686E
:102DD00020468847206B41682046BDE810400847E0
:102DE00010B50446806D884209D004F17400A165D5
:102DF00000F084FB2046BDE8104000F05BB810BD39
:102E000080F87010704780F86D1070470149C165F7
:102E100070470000A13100080021A0F85010A0F870
:102E200054104FF6FF71A0F85210A0F85610016B25
:102E30004968084770B5044600250498A565E36213
:102E4000616384F8382084F8395084F86D5084F830
:102E5000915084F88D50012184F8921084F89310D9
:102E600020630168204688472046FFF7D5FF2046AB
:102E7000FFF7CCFF84F8705070BD00007CB50C46A5
:102E8000009313460546084A084900F0F0FB01A8E4
:102E900000F02EFB0146064B00949DF804202846C6
:102EA000FFF7C8FF7CBD0000293800085139000831
:102EB0006134000810B5816D00291AD090F9813075
:102EC00080F88E3090F9822080F88F2090F88D1055
:102ED00000290ED001290DD090F97E4090F9801084
:102EE0000C449C4201DD80F88E408A4201DD80F86E
:102EF0008F1010BD90F983108B4201DA80F88E108C
:102F000090F98410F1E72BB1012B05D0022B06D0EC
:102F1000104402E0084400E0801A80B27047401A72
:102F2000FBE72BB1012B05D0022B06D0401A02E0A3
:102F3000104400E0084480B27047801AFBE738B5BF
:102F40000446B0F856000090B4F85230B4F854205B
:102F5000B4F850102046FFF7F5FE18B3012084F8AE
:102F60008C00B4F84810B4F85000814201D2A4F8A3
:102F70004800B4F84A10B4F85200814201D9A4F8CC
:102F80004A00B4F84C10B4F85400814201D2A4F8BD
:102F90004C00B4F84E10B4F85600814201D9A4F8A0
:102FA0004E0038BD002084F88C0038BD30B5048850
:102FB0000D882544ADB2AC4205D99C4202D25D1EBB
:102FC000ADB200E014469C4201D2954201D80020E7
:102FD00030BD944200D214469D4200D91D46048063
:102FE000281B0880012030BD2DE9FF4FC3F10100EF
:102FF00083B006B258429146DDF840A040008B46AF
:1030000001271C46CDE9009A00250FFA80F85B469F
:103010002246294615E0002E08DB08F102000FFACF
:1030200080F8641E06EB0800A4B206B26D1CBF1C3B
:103030003FB2CDE9009AADB2F01906B25B46224626
:103040002946039800F005F8A542E4D307B0BDE88F
:10305000F08F2DE9FF4F83B00E46DDE9108703EBBB
:10306000060002901546A8EB0600019003EB050050
:103070001C46F907A8EB050B00900DD002981FFA2B
:103080008BF281B20398FFF783FD019882B200981A
:1030900081B20398FFF77CFDB907A4EB060AA4EB05
:1030A00005090DD51FFA8BF21FFA8AF10398FFF775
:1030B0006FFD01981FFA89F182B20398FFF768FD4E
:1030C00008EB0504390708EB06050BD50298A2B2F8
:1030D00081B20398FFF75CFD0098AAB281B2039811
:1030E000FFF756FD78070ED5A2B21FFA8AF10398B2
:1030F000FFF74EFD039807B0AAB21FFA89F1BDE8A9
:10310000F04FFFF745BD07B0BDE8F08F38B5C58F6C
:10311000049C0094521BC46A92B2A04738BD38B5D3
:10312000049C0094FFF7F2FF38BD2DE9F0471C46E0
:1031300091468846064600F0DCFC00254FF6FF77F6
:1031400072682178304690470346B84225D0641C07
:10315000A3F57F40FE38F3D04A4641463046FFF79C
:1031600038FC96F8701031B1012907D0022908D037
:1031700003290FD10AE008EB000104E009EB00018C
:1031800006E0A8EB00011FFA81F803E0A9EB0001BB
:103190001FFA81F9284485B2D2E72846BDE8F087B6
:1031A0000020704710B50C4600F006F80122641E9E
:1031B000A240801A40B210BD30B50568047B2A7861
:1031C000E2406318DBB2082B09D36D1C05602D7833
:1031D000C4F10804A5401543083BEAB2DBB2012460
:1031E0008C40641E14400373204630BD2DE9F84323
:1031F000054600F1600400F00CF915F96B6F2046EC
:10320000E97BFFF7CFFF8146297C2046FFF7CAFF05
:103210000746697C20466B3DFFF7C4FF804694F962
:103220000A00002857DDF019404247B2237CA088ED
:103230003A464946FFF767FEA080237C3A46E0887D
:103240004946FFF76EFEE080A188277C02460B46C8
:1032500037B1012F0AD0022F40D0032F0FD146E003
:1032600094F90A7030443B449BB207E0891B491C27
:1032700094F90A705B1C89B29BB2384480B200900A
:103280002846FFF75FFD30B30020207284F8090064
:1032900095F876102046FFF78FFF814695F8771056
:1032A0002046FFF789FF074600224946284600F0DE
:1032B00027F801223946284600F022F8012120464D
:1032C000FFF77AFF0028EFD194F90900B042DFDB65
:1032D000A07B85F892004046BDE8F88394F90A7017
:1032E0005B1CC91B491C89B29BB2921B04E094F978
:1032F0000A7033449BB2D21B521C92B2401CBDE7F1
:103300002DE9F74F84B00D46049C94F8687094F84A
:1033100069806034A07AC01BC6B20196B54200D263
:1033200001954FFA88F279B2A088B4F806B0237CF0
:1033300092468946FFF7E7FD0290237C52464946B4
:103340005846FFF7EEFD0246069808B1A17B02E061
:10335000607B50B9E17B049880F89210207C00904B
:10336000DDE901310498FFF773FBB54207D3A81BD1
:10337000C5B208F10100002700F0FF08CAE778197C
:10338000207284F8098007B0BDE8F08F70B50D4653
:103390000146806D1730FF2D10D8612D02D3B1F892
:1033A000881003E0412D02D3B1F88610084441781B
:1033B00019B30278AA42F9D1801C70BDB1F88A1005
:1033C0000C1826460021304600F019F8044402216A
:1033D000304600F014F8361DA842F3D34FF6FF72C2
:1033E000207802EA00216078084306D0A84201D183
:1033F000E01C70BDA0780444F2E7002070BD0844D2
:103400004FF6FF720178407802EA0121084480B249
:10341000704730B5054600F1600401660020207356
:1034200015F8781F2046FFF7C7FEA072697820467E
:10343000FFF7C2FEE072A87EA07310B10020E07317
:1034400030BD0120FBE78A4205D2834201D89A426F
:1034500003D9012070478342F9D80020704700004B
:10346000F0B502F007060124B440002590F892E080
:10347000E7B2DDF814C02C46BEF1010F01D83D467D
:1034800000D03C46076822F00702BCF1000F3F7CE9
:1034900007FB02F7BAB2476B3A44114409D10878E6
:1034A0005B1E284360401B0401F8010B1B0CF6D186
:1034B000F0BD0A78761C2A436240A3F101030A702A
:1034C00016F007069BB206D06A06150E6206140EA9
:1034D000002BEED1F0BD428F114490F89220012ACA
:1034E00003D800BF4FF00105F2D04FF00104EFE721
:1034F00008210170004870473801002070B505466A
:1035000008782870487868708878A870C878E8705B
:10351000087928714879687188790C46A871E07932
:10352000E871207A2872607A6872A07AA872E07ACC
:10353000E872207B2873607B6873A07BA873E07BB4
:10354000E873207C287411212046FFF758FF688219
:1035500013212046FFF753FFA88215212046FFF7CD
:103560004EFFE88270BD2DE9F843064690F83870AA
:1035700090F83950006800244FF6FF7890F81190C9
:10358000316830462A460B7C716B04FB03FC1FFA42
:103590008CFC08EACC0C61440091002100F040F85A
:1035A000641C6D1CE4B2EDB2BC4201D24D45E7D3C0
:1035B000BDE8F883F0B590F838204FF6FF75036842
:1035C00005EAC2018187197C05EAC101418790F8AB
:1035D000394005EAC401C1875E7CA718B74201D90A
:1035E000321B92B205EAC20220F8401F114441800A
:1035F000998A8180D98AC180F0BDFFF7DBBF0021A5
:10360000A0F84810B0F84410A0F84A10B0F84010E4
:10361000A0F84C10B0F84210A0F84E10FFF78FBC85
:103620001CB58DF805108DF80620049C8DF804302B
:103630000094012284686B460F21A0471CBD30B462
:1036400084680023A44630BC1A460A21604730B47F
:1036500084680023A44630BC1A461021604730B469
:1036600084680023A4460A4630BC0B2160472DE93C
:10367000F04115460E460446069F00F009F86761C2
:10368000A660C4E903532046BDE8F04100F012B83B
:10369000002140F8081B064A026042608260C26056
:1036A000C17681770161FF21017780F82010704792
:1036B000553A000830B484680023A44630BC1A464A
:1036C00009216047080001D00A2801D14FF6FF7098
:1036D000704730B404690023A44630BC1A4619214F
:1036E000604713B50122046901AB1721A0471CBD37
:1036F00030B404690023A44630BC1A461821604740
:1037000038B5184818290DD004DC142907D017291A
:1037100023D10AE0192916D020291ED11FE0FEF777
:1037200073FE1CE00021017019E00F4C08E000BF9F
:10373000017813F8015B6554491C521E0170D2B226
:10374000002AF5D10BE04FF47A7100910378064A14
:1037500078210648FDF7E0FA08B1002038BD0120C5
:1037600038BD0000000000201C000020E400002004
:1037700030B4C4680023A44630BC1A4619216047FF
:1037800030B4C4680023A4460A4630BC1621604702
:1037900030B4C4680023A4460A4630BC15216047F3
:1037A00030B4C4681346A4460A4630BC17216047AB
:1037B000F8B50C464FEA000514F8011B182924D06F
:1037C0000EDC152919D0162917D0172923D12078F6
:1037D0008DF800006A4601212846FFF7E1FF0AE064
:1037E000192912D0FE2916D122788DF8002029211E
:1037F000284600F062F9641CDEE722788DF800208C
:10380000EE6800232846B047F5E70023EE681A4625
:103810002846B047D0E7F8BD30B4C4680023A446BA
:1038200030BC1A46182160472DE9F041DFF8B0801E
:1038300014460646A1F11402002798F800001D4620
:10384000062A4AD2DFE802F02F03161B3E4310B1CE
:103850003046FFF73EFF3046FFF74AFF0021304673
:10386000FFF73FFF21463046FFF73BFF012088F876
:10387000000029E021463046FFF733FF24E050B135
:103880003046FFF726FF06E01821304600F01BF90E
:10389000183CE4B21835182C2A46F5D82146304693
:1038A00000F011F90EE096F82400FF2802D17820EC
:1038B00086F8240037692B4622463046BC46BDE8D0
:1038C000F041604788F800700120BDE8F0810028D1
:1038D000F8D03046FFF7FDFEF4E70020F5E70000E2
:1038E0001400002070B50023456904461A462821BB
:1038F000A8470023E5681A4614212046A84701225C
:103900004B21204600F0D9F8206829210279204671
:1039100000F0D3F800224B21204600F0CEF82068BA
:1039200029210279204600F0C8F801224B212046C7
:1039300000F0C3F82068292142792046BDE8704094
:1039400000F0BBB80160897C80F82210704700004D
:1039500070B50C46054600F019F888B9092C0BD053
:103960000A2C01D0002070BD2846FFF7BBFF054997
:103970002846FFF71DFF03E003492846FFF7E2FF53
:10398000012070BDB6850008B88600082DE9F04119
:103990001E46144605460B2908D00D290ED00E29C7
:1039A0001ED00F2927D00020BDE8F0811AB1284988
:1039B000FFF7FEFE4AE02649491FF9E74AB12449CC
:1039C0000C31FFF7F5FE286890F8130085F8220007
:1039D0003CE01F49491DFFF7EBFE2868807CF5E7B6
:1039E000FFF71AFF81212846FFF7D2FE214628461D
:1039F000FFF7C6FE27E0FFF70FFF707995F822105A
:103A000001EBC000C7B240212846FFF7C1FE1020DD
:103A100040EA17112846FFF7BBFE07F00F012846C2
:103A2000FFF7AEFEB07940F0B0012846FFF7A8FEE0
:103A300030793268C006010E2846FFF7B1FE641ED9
:103A400014F0FF04F4D12846FFF792FE0120ABE703
:103A5000958500080020704710B54D2919D00CDC61
:103A60002B2918D004DC292920D02A290ED114E0D2
:103A70002D290ED04C2909D10BE00022502919D054
:103A8000512917D0522915D0532913D0012180F87C
:103A90002710012010BD00BFFBE700204FF4A071EC
:103AA00000BF401C80B28842FAD3F2E70120FCF745
:103AB000D3FDEEE780F82720EBE730B4446900231C
:103AC000A44630BC60472DE9F04115460E46044639
:103AD000FFF70EFE40212046FFF703FE27692B4625
:103AE000324617212046B8472046BDE8F041FFF78F
:103AF000F0BD002180F82610704700002DE9C0417C
:103B000030B4DFF8A0C23CEA111418BF3CEA131429
:103B100000F0EC8081EA03051CEA111444EAD57434
:103B200018BF1CEA131500F0C780A4EB05044FF082
:103B3000004545EAC12145EAC32341EA505143EA21
:103B4000525304F17F74994204F500344FEAC020C7
:103B50004FEAC22208BF904200F09C804FEA1365F2
:103B60000FF24016765D4FEA134506FB05F7C7F1E5
:103B7000807706FB07F74FEAD737A7FB0368764243
:103B8000C8F58038A7FB06CE38BFA8F1010807FBAF
:103B900008E64FF0000EA6FB028CE6FB03CEDCF13C
:103BA000000CCEF1004E38BFAEF1010EA6FB0C5852
:103BB0004FF000074FF00005E6FB0E87A1FB08C69B
:103BC000A0FB07CE16EB0E0645F10005E1FB0765ED
:103BD00015F1E04E7EBFA4F580345FEA46066D41E4
:103BE00016F1800745F100054FEA17274FEA0666F0
:103BF00047EA0567A6F1DE46B6F1805F4FEA152574
:103C00001FD9384624F0010C05EBC471BCF1FE6FDE
:103C100001EB0C1102D8F0BCBDE8008124425CBF6E
:103C200001F5801E9EEAC47F02D4F0BCBDE800818D
:103C3000244238D4F0BCA1F1C041BDE8004100F0FD
:103C4000F3B94FEAD22242EA43524FEAD323A7FB09
:103C500002864FEAD02040EA415007FB03661EEA85
:103C60000E0F4FEAD12105FB026658BFA6EB0056A6
:103C7000B6EB00564FEA520E4EEAC37E18EB0E0E1C
:103C800056EB530EBDD518EB02085E417F1C55F173
:103C90000005B6E74FF480154FF000074FF000061F
:103CA0004FF00008ADE7F0BC4FF0000001F1C0415B
:103CB00001F00041BDE8008111EA0C1F0CEA131568
:103CC00000D00CE013EA0C1F00F025804FF000003C
:103CD000F0BC81EA030101F00041BDE80081F0BCC5
:103CE000BDE8004181EA030100F09EB9F0BCBDE8E7
:103CF000004170B500F04AF9097EFC3E00F007B8BB
:103D000081EA03014FF0000001F00041704781EAB1
:103D1000030100F089B9F0BCBDE800414FF000009C
:103D200021497047FFFDFBF9F7F5F4F2F0EEEDEBFA
:103D3000E9E8E6E4E3E1E0DEDDDBDAD8D7D5D4D3A9
:103D4000D1D0CFCDCCCBCAC8C7C6C5C4C2C1C0BFF5
:103D5000BEBDBCBBBAB9B8B7B6B5B4B3B2B1B0AFFB
:103D6000AEADACABAAA9A8A8A7A6A5A4A3A3A2A1DF
:103D7000A09F9F9E9D9C9C9B9A999998979796959A
:103D800095949393929191908F8F8E8E8D8C8C8B36
:103D90008B8A8989888887878685858484838382BE
:103DA000828181800000FF070000F87F4FEA410315
:103DB0004FEA5353A3F58063D3F11E03C8BFD3F179
:103DC000210C0CDD4FF0004242EAC12242EA50527F
:103DD00032FA03FC8CEAE17CACEBE1707047102B0B
:103DE000C4BF0020704703F5787CBCF1FF3F04D0CE
:103DF0006FF0004282EA2100704770B500F0C6F80B
:103E00004992248000207047F2E710F0004248BF3A
:103E10004042B0FA80F310FA03F10AD0C3F11D0357
:103E200003F580634FEA415002EB035202EBD121CC
:103E300070474FF000007047DFF848C170B51CEACA
:103E4000111E1EBF1CEA13159EEA0C0F95EA0C0FFB
:103E500000F06F8081EA030423EA4C134EEAD47E1B
:103E600021EA4C1141F4801143F48013AE44A1FBCC
:103E7000024CA0FB0365AEF17F7E361955EB0C05B5
:103E8000A1FB034C4CF10003A0FB021C16EB0C063B
:103E9000654153F10003094218BF46F0010613F4CF
:103EA000007F0BD14FEA03314FEA0530340341EA7A
:103EB000155140EA16506FF003020AE04FEAC321A1
:103EC0004FEAC520F40241EA555140EA56506FF0DE
:103ED000020202EB2E4201EB025585EACE710AD0B6
:103EE0005FEA440C18BF24F0004450F1000041F197
:103EF000000120EAD47040F2FE7C624500D270BD21
:103F0000A84214BF4FF080444FF04044002E08BF39
:103F10000024BEF1806FA8BFA1F1C041BDE8704090
:103F200080F282804FF0000001F1C04101F00041B9
:103F300070479EEA0C0F0CEA131518BF95EA0C0F98
:103F400006D04FF0000081EA030E0EF0004170BD74
:103F500000F01CF88900013E00F007B800F009B835
:103F60004FEA430C5FEA5C5C08D081EA030100F091
:103F70005BB84FEA410C5FEA5C5CF6D14FF00000A1
:103F8000014970470000FF070000F87F0EF1020EA4
:103F90002EF0030E5EF8046B364205D4012A43EB83
:103FA000030515F5001F12D8012841EB010C1CF583
:103FB000001F0CD80ED14FEAD17C15F5001F0CEB79
:103FC0004C0C0CF1020C08BF4CEBD37C04E04FF01E
:103FD000080C01E04FEAD37C0CEB4C0526FA05F601
:103FE00006F00706B6F1040C06D20EEB860CBDE80F
:103FF00070404CF0010C6047DFE80CF0090B020246
:104000004FF000414FF00000A1F5002170BD1946AE
:104010001046012851EB010418BFD4F5001484BFE9
:10402000002001F0004170BD0808A0F500114FEA22
:104030003101704700000000000000000000000097
:104040000000000000000000000000000000000070
:104050000000000000000000000000000000000060
:104060000000000000000000000000000000000050
:104070000000000000000000000000000000000040
:104080000000000000000300070000000000000026
:104090000000000000000780070000000000000092
:1040A0000000000000000FC007000000000000003A
:1040B0000000000000001EE00300E0000000000E11
:1040C0000000000000003CF00000F8000000800F3D
:1040D0000000000000FCFFFFFF01FC000000C00F1B
:1040E0000000000000FFFFFFFF03FC00003CC00FCA
:1040F0000080030080FFFFFFFF07FC00003CC00FB3
:1041000000C0070080FFFFFFFF0FFC00003C800F96
:1041100000C00700C00F0000800FF800003C800FB7
:1041200000800700C0070000001FF8000078800F23
:1041300000800700C0070000001FF8000078800F13
:1041400000800700C0070000001FF8008079800F82
:1041500000980700C0070000001FF800E0799F0FDB
:1041600000BEE701C0071040001FF800E07B1F0FF2
:1041700000BEE701C0871FE00F1FF800E07B1E0FA5
:10418000003EE701C0E73FE03F1FF000E07B1E0F6D
:10419000003EE701C0E73FE03F1FF00060711E0FE7
:1041A0000034E701C0E707003F1FF0000070001F68
:1041B00000000700C0070000001FF000C0731E1FB2
:1041C000003CC701C0070000001FF000C0731E1FA5
:1041D000007CE701C0070000001FF000C0731E1F35
:1041E000007CEF01C0070000001FF001C0771E1E19
:1041F000007CEF01C0070003001FF0FFC1F71EFEA7
:104200001F78EF01C0077037001FE0FF87F71EFE21
:10421000FF78EE01C007E03F001FE0FF9FF71EFEA2
:10422000FF79CE01C007C018001FE0FFBFE71EFEE8
:10423000FF7BCE01C0070000001FE0C7BFE71EFEE6
:10424000F877CE01C0070000001FE00F3FE71CFE1B
:10425000F077CE03C0070000001FE0CF3FE71CFE51
:10426000F8F3CE03C0FFFFFFFF0FE0EF1FE71CFED8
:10427000FEF1CE0380FFFFFFFF0FE0FF0FCF1CFC1E
:10428000FFF0C00300FFFFFFFF07E0FF03061CFC79
:104290007F60C00100FEFFFFFF03E0FF000000FCA5
:1042A0000F00000000FCFFFFFF00C00F000000FC3B
:1042B0000000000000C003001E000000000000001D
:1042C00000000000008001000C0000000000000061
:1042D00000000000000000000000000000000000DE
:1042E00000000000000000000000000000000000CE
:1042F00000000000000000000000000000000000BE
:1043000000000000000000000000000000000000AD
:10431000000000000000000000000000000000009D
:10432000000000000000000000000000000000008D
:10433000000000000000000000000000000000007D
:10434000000000000000000000000000000000006D
:10435000000000000000000000000000000000005D
:10436000000000000000000000000000000000004D
:10437000000000000000000000000000000000003D
:10438000000000000000000000000000000000002D
:10439000000000000000000000000000000000001D
:1043A000000000000000000000000000000000000D
:1043B00000000000000000000000000000000000FD
:1043C00000000000000000000000000000000000ED
:1043D00000000000000000000000000000000000DD
:1043E00000000000000000000000000000000000CD
:1043F00000000000000000000000000000000000BD
:1044000000000000000000000000000000000000AC
:10441000000000000000C0010000000000000000DB
:10442000000600000000C001000000E007000000DE
:10443000000700000000E003000000FC1F00000077
:10444000000F00000000E003000000FE7F000000FD
:10445000800F00000000E003000000FFFF000000EC
:10446000801F00000000F0030000800FF00000003B
:10447000C03F00000000F8030000800FF0010000C2
:10448000FCFF010000C0FDFF0000C07FFE01000036
:10449000FFFF0F0000E0FDFF0100C01FF803000058
:1044A000FFFF0F0000E0FDFF0100C00FF003000060
:1044B000FEFF070000E0FDFF0100C067E60300000B
:1044C000FCFF030000E0FDFF0100C067E603000001
:1044D000F8FF010000E0FDFF0000C067E6030000F8
:1044E000F07F000000E0FDFF0000C067EE03000069
:1044F000E07F000000E0FDFF0000807FFE01000083
:10450000E0FF000000E0FDFF0000807FFE010000F2
:10451000F0FF000000E0FD7F000000FFFF00000052
:10452000F0FF000000E0FD7F000000FEFF00000043
:10453000F8F9010000E0FD7F000000FE7F000000B0
:10454000F8F0000000E0FD1F000000F81F00000070
:1045500030C0010000000000000000C003000000A7
:10456000000000000000000000000000000000004B
:10457000000000000000000000000000000000003B
:10458000000000000000000000000000000000002B
:10459000000000000000000000000000000000001B
:1045A000000000000000000000000000000000000B
:1045B00000000000000000000000000000000000FB
:1045C00000000000000000000000000000000000EB
:1045D00000000000000000000000000000000000DB
:1045E00000000000000000000000000000000000CB
:1045F00000000000000000000000000000000000BB
:1046000000000000000000000000000000000000AA
:10461000000000000000000000000000000000009A
:10462000000000000000000000000000000000008A
:1046300000000000537475706964210000010202DB
:10464000030405060708090A0B0C0D0E0F101000D5
:104650000000000000000001020304060708090032
:1046600000000001020304E000020204030204054A
:10467000080700FF04FF05FF00E201D506D9200569
:1046800000510221064151A20222072397925400B1
:10469000230A55CF560D550D5501240B65CF9AC7EA
:1046A000C8688C1C01250644B1127B260954B1163A
:1046B00053ACD20827052157222807626FA69A011A
:1046C0002908626F1253A5002A06227332022B07B3
:1046D00033919656022C05214F222D051393322E2D
:1046E000051151122F0744B11EDB003008439132EF
:1046F000921A0131064271B60A3207439132531AB7
:1047000033074391B2F2083408439112D38801353C
:1047100007439132F4083607439132E218370743D2
:10472000913253093807439172A4113907439172AA
:104730008E003A06315192023B06414F92043C06EC
:10474000327126033D063391B2073E0732711215CE
:10475000003F074271A27200400844B132D41E01EA
:10476000410844B1A6E29801420844B1B2861C0255
:104770004307439136B300440844B1B2A21C094533
:104780000844B172A43C02460844B132F4CA00475E
:104790000844B132741A03480844B112C79401495D
:1047A00006415132024A07439132E3024B0844B1B9
:1047B00012478A324C07439112CB014D0845D192E2
:1047C000D74A3A4E0844B112979A014F0844B1A60D
:1047D000A24C0A500844B1B2E24819510A45D132FC
:1047E000524C31AD00520744B1F22A03530844B190
:1047F00036341A0A54074391B26205550744B11280
:10480000CD21560844B112CDA400570945D1925587
:10481000525D005807439192CA54590844B1128717
:104820001E025A0844B1326239025B07626FB25A03
:10483000025C0944B192514619055D07626FA25AA4
:10484000035E062397D6005F0614AF32026006228D
:104850007712036106339176046208439112555A28
:104860000063063271B204640743919A56126507D9
:10487000339132D202660843919AD24A00670743C5
:104880008F72260168084391125552016906415101
:1048900092046A07526F9693026B07439112D32AD0
:1048A0006C06415132026D0835D1A25AAA006E073A
:1048B0003391A2920A6F07339132D2087008438F66
:1048C000A2D28A007107438FB6920C72073271B27E
:1048D000120073073391A6920274074391965614FF
:1048E0007507339192D4087607339192540577086F
:1048F00035D19255170078063391923A7908438F53
:1049000092461C017A07339122A3007B08638FA68D
:10491000CA1C057C05614F727D09638F22734C4967
:10492000017E0724B79654027F0854B132A439049B
:1049300080050051028108539192725223820863CC
:104940009156C3A10683086391D646470084085355
:104950009192323A028508639196333A028608634F
:1049600091D6B946008707426FB246008807639127
:10497000D61E6A8908539192F250038A0863919671
:10498000F350038B08439192328A098C085331D734
:104990004631018D07527112730A8E0954B1129378
:1049A0008A63068F0A64B1A6625271CC00900964D2
:1049B000B15A8E91F208910835D136941A02920AB2
:1049C00048313F649A23E71193086391D61E690426
:1049D0009408539192F248239509639192331A698E
:1049E0000496086391D64E6A0497086391962B3516
:1049F000029809638F92721A3109990A54B112937D
:104A00008A3229009A0954B112338A72089B050030
:104A100091029C050091029D050091029E05009166
:104A2000029F05009102A008639156E33502A10799
:104A30005271A65302A20963919A321A6904A3091A
:104A400063919A324A6A04A40A649196548632B5F4
:104A500000A50964B19654B9D40CA6065151A2041C
:104A6000A708638F32E29823A80614B91203A90F8E
:104A7000772F3754866AA9AC9686692800AA050064
:104A80003103AB07339136A200AC0623933203AD5A
:104A900005003103AE0E772F3754866A99AAD230BB
:104AA0000D05AF0614B93202B007339532D208B102
:104AB00007433197561AB207339522A300B3063243
:104AC00075A206B4062277A600B508432F93D490AA
:104AD00000B60A56EF36AEB472CA29B70591731202
:104AE000B805003103B9063275A20ABA0733953208
:104AF000D208BB073391224702BC0E670FA3639D08
:104B0000324C398E8C1200BD0D670FA3639D324C61
:104B100032A78C04BE0E672FA363A9324C398E8C4A
:104B20001200BF05009102C00A64B196515471CCC5
:104B300000C10964B15AAB386600C20A64B1A6620A
:104B40005271CC00C30A64B196545471CC00C409AC
:104B500054B112938A6306C50964B1A6B18A63068B
:104B6000C60A48313F649A23E711C70954AF32F4AB
:104B7000885101C80A64B196511A23E511C9096424
:104B8000B15A8E91F208CA0A64B1A6E2182A8F00BF
:104B9000CB0A64B112331A23E511CC0762711255A6
:104BA0000BCD076271265303CE076391D6D902CF8E
:104BB00008539192CA1600D00845D176956901D163
:104BC0000964B19654867119D20A64B19651545150
:104BD0002605D30964B15AAB289302D40A64B1A65E
:104BE0006252512605D50A64B1965454512605D611
:104BF0000A54B112938A322900D7063391923AD8D7
:104C00000C66EF0EE34C52C5992100D90964B196A8
:104C100051690E01DA0864B1DA348700DB0A64B145
:104C2000A66246510E01DC0954B112338A7208DDC6
:104C30000864B1DA1C7A08DE0A64AF9257942365DF
:104C400000DF08538FA2545A11E008639196333A5B
:104C500002E108639156E33502E2086391D64647C4
:104C600000E30A64919654C6AA5A00E4085391924C
:104C7000323A02E5086391D6B94600E60835D136E6
:104C8000941A02E707426FB24600E808639196F370
:104C9000480BE909639156C3911600EA086391D65F
:104CA0001E6901EB08539192F2480BEC0752711206
:104CB000730AED075271A65302EE085391D646319E
:104CC00001EF08439192328A09F00A64B126354A0D
:104CD000232605F10A649196548632B500F20863E2
:104CE0009196F34823F309639156C3914600F40863
:104CF0006391D61E6904F50A6491965486AB5A00F6
:104D0000F608539192F24823F708539196D1460939
:104D1000F80A55CF8ED24C716504F9086391962B31
:104D20003502FA09639156C3A44600FB086391D685
:104D30004E6A04FC08539192725223FD09738F56F8
:104D4000C3346212FE08538F12555A11FF09638F44
:104D500092721A310900000004FFFF00005F000298
:104D6000020303020404040600FF05FF05FF00E937
:104D700001D302B6200580CD002106E9C8AC00228F
:104D80000693CB2415230AACC8A434541A2A012450
:104D900009B3C7A5A1474A002508ABC864D446019A
:104DA0002609ACC8C514AB98022705D1CB08280743
:104DB000F2C7A966002908B2C7C45429002A07AB64
:104DC000C8A46A352B08ABC8C5B462022C0692C7CA
:104DD00029002D058BCA0C2E05C9C8042F07ABC8A6
:104DE0005665043008ABC8554355003107ABC8259C
:104DF000590D3207ABC835531A3308ABC8CC9417DA
:104E0000003408ABC8243562013508ABC88CA8173C
:104E1000003607ABC84DD5023708ABC8CC544600A6
:104E20003807ABC8ADD6023907ABC8B5E4023A06BD
:104E3000E1C8C4003B07AAC765A8003C07ABC8A6E9
:104E4000BA003D069BC9EC013E07ABC8E4AA043F8B
:104E500008ABC8E89461024006ABC82D5B4108ABC3
:104E6000C85543A9004208ABC8A8B4D2024308AB56
:104E7000C8553255004408ABC8A8642D004508AB9E
:104E8000C88CA8E2004608ABC88CA862044708ABEF
:104E9000C8CDA492004808ABC82435940A4907AB92
:104EA000C8AC580D4A07ABC896AA024B08ABC82439
:104EB000B5920A4C07ABC8C4E6004D08ABC8A43194
:104EC000940A4E08ABC8AAA124004F07ABC8555698
:104ED000055008ABC8A8B462045107B3C755561DA6
:104EE0005208ABC8A8B4920A5307ABC8EDBC005433
:104EF00007ABC8ACD8025507ABC824D7085608ABD7
:104F0000C8246BA4045708ABC82435860A5808ABDC
:104F1000C824D552015908ABC8245556005A07ABCE
:104F2000C8CC540E5B06EAC8AC4A5C07ABC8C45C8C
:104F3000065D06AAC8A86A5E0593CB355F058BC7D8
:104F40000C6006D2CBC4006107A3C82D950462088B
:104F5000ABC84495D4026306A3C8CD2C6408ABC883
:104F6000A6A592006506A3C855536608ABC8A6B4AB
:104F700062026708ABC7AD2417006808ABC8449548
:104F8000AC006908ABC86524D3006A08B3C766588B
:104F90002E006B08ABC8C4B4920A6C07ABC8C8D665
:104FA000006D08A3C8A4A154006E07A3C8A8640597
:104FB0006F07A3C855AA027008ABC7A8B4620471F2
:104FC00008ABC72D9564007208A3C8A4152300730D
:104FD00007A3C88DBC007408ABC8A515730075077E
:104FE000A3C8242B097607A3C824AB027708A3C85B
:104FF000243554007807A3C8A432157908ABC72418
:1050000095E4027A07A3C8CC94067B08B3C7A6240C
:10501000EB007C06E9C80C017D09B3C7E4A8628AED
:10502000007E0794CB25950000000004FFFF0000E0
:10503000BF00020204040304050C0DFFFE08FE0875
:10504000FE016A032C0984200500CC09210882C4D2
:10505000C991F2082207336D4BB202231087447CBA
:10506000CAA81C3365548E9932AA012410A53C6B42
:105070001E2AA938E28849A5A1230025158AC49DC6
:10508000D44A655523554995544649E5A8725600BA
:10509000261188C4AC862A2395A186494B73A4A502
:1050A000002706316DCA00280BA4B47A8C4ABA7561
:1050B0004601290AA4B44A46D974C91A2A09555C7A
:1050C0006B55AD66042B0B554C6B4671C88C22009A
:1050D0002C0742B4C9480A2D06135CCA002E0622CA
:1050E000C4C9082F0A84C47A99638E3903300E85A7
:1050F00044DB52238D34D24823A905310984459BD2
:105100009ABE4600320C8544DB52236929F33802EB
:10511000330E8544DB5223498D461A492D00340B4A
:105120008544EB95549A636439350D8544CB2BA3A4
:1051300091D14823A905360E8544DB52238FA4461E
:105140001A492D00370A8444CBA1638E2E00380EF5
:105150008544DB5223A9A5461A492D00390E854402
:10516000DB52238DA4461E492D003A0752C4C9883C
:10517000233B0972B4C9882329003C0956CC3B92D1
:1051800036D6583D083554CBD070083E0A56CC8BE5
:10519000C61A4B1B013F0A8544DBB2A5CCB40940BB
:1051A00012A93CFD465A6698E248FE5432939A1E74
:1051B00011411289433CCAD4C61B468DA21E2366E8
:1051C000A4E608420E8744CC694935A425951C43C2
:1051D0000143108744ECAA47461B6AA8518DE24858
:1051E00000440F88C4CCADA3565A69A5954E6302FE
:1051F000450E86C4CB25938A23AA28931C23460EEA
:1052000086C4CB25934C2A8EA8A21E11470E874434
:10521000ECAA47461BCAA155962B48128944CD4893
:105220002369A9E518514B2DB51A6904490984C4AD
:10523000CA48D2D7084A0C86C4EBC81A69E42BCAFC
:10524000094B1189C4CC88769619A90C8746525B04
:10525000230E4C0F86C4CBC81A69A4914632C931BB
:10526000024D158B44CEC823ED995492492599548B
:1052700092D18CD652234E1188C48C5E3ACE3852CD
:105280004C23C699D54E004F0E8744ECAEF4C8238C
:105290008FAC729E00500F8744CC694925D5901A77
:1052A0006A3432005113983CEC46396AA59556236E
:1052B00049A5D148192A00520D88C4CC2D3DF3D000
:1052C000D235D200530D86C4DB39F2D068E811D74D
:1052D00002540E86C4CB915C51238D34D2230155E8
:1052E0001088C4CC484B471D75D451479D47045680
:1052F0001188C4CC484B479D55462A2395A1C61A10
:1053000057158B44CE486A4919CDA8928A2AA9BC60
:1053100036D21A6909581088C4CC484BC795D1C6F3
:105320001BA599D511591188C4CC484B679591CAD2
:1053300050638D351C115A0B86C4CB91F57CEB3133
:10534000025B08A334CA50FE1A5C0C84C44ACE28FF
:10535000679433CA015D08A334CAF2D7105E0A65A8
:10536000546B4679A65A075F061634CB01600623B4
:10537000748A14610954C4CA56238D01620E86C40E
:105380008B461A69641D71C4B50063095544DB92EC
:105390005BA605640E86C4FB461AA931E288232D5C
:1053A0000365095544DB52E34623660C85C4EA5283
:1053B000498EA8CD9100670D86343B8A5339F7D8C2
:1053C000632400680E86C48B461A69641D71C4117B
:1053D00005690A84C49AD470BA46006A09A3B49ACB
:1053E000BDBC46026B0E86448B461A69648D38A29A
:1053F000B2066C0884C4CAF46B046D0D5AC48D9255
:10540000EA11E5887244036E0B56C48B52471C7137
:1054100044016F0C56C4DB4872C411D54800700DAE
:1054200076B48B52471C718CA4D106710E77B4DB15
:10543000505249A5A6D250A311720954C48A1A2306
:105440009A00730954C4DA90230E05740973445A00
:1054500052439902750B56C48B1C71C49196017608
:105460000B56C4CBB2A2CA1A4900770C5944CDF2EC
:105470008A4A65A59109780A56C4CBB2B24ED600C5
:10548000790D76B4CBB2A2CA1AC9AD11007A08550B
:1054900044CB25CD317B0AA4B4AA9296966E017CAA
:1054A000068146CB217D0AA4B48A96B6922E097E47
:1054B0000726DCDB520BA00500CC09A10982B4C988
:1054C000C8698C00A20C753C3B4A632595569A1915
:1054D000A3108744EC88326A34B6465A8D91160080
:1054E000A40C574C4C5AC95452A9B402A51288C4F2
:1054F000CC484B6795918D341C1A69382200A60759
:105500008146CB1A01A70DA4B4DA885BA591929EBF
:105510002301A80723744A5201A91288C4ECC819B0
:10552000954BC5A43292AB46794400AA0863548ACD
:105530001E2A0FAB0A56C46BA546924A16AC093513
:1055400054CBD028A300AD06135CCA00AE1288C4A9
:10555000ECC8195523A998D45449D5288F08AF060B
:1055600014F4CA08B00843645AA52A00B109554C7E
:105570006B1C325343B20743E4D9AA06B30743E492
:10558000C9CA0BB4072374DA4800B50E76B48B1C75
:1055900071C491C61A196904B6108744DC38521ACE
:1055A00029AE8C6A54A37A08B70622DCC908B8066B
:1055B00032354A1CB90743E4599269BA0A64D49A4D
:1055C0008A32693802BB0C56C44B8C4AAA91548C5F
:1055D00000BC1188C45C8EBACC2BE39851D269C44C
:1055E0009C00BD0F88C45C8EBACC2BE3A85399CB2A
:1055F00001BE1188C4CCCC35AA65C631A3A4D3881A
:105600003901BF0B8534ABD674B4955A00C015B9B7
:1056100043AC2635CF4C6DBC61D428EA3162466A72
:105620008E00C115B9433CD458F3CAD4C61B468D6D
:10563000A21E2366A4E608C215B943FC864A736716
:105640006AE30DA346518F1133527304C316B94355
:10565000BCCA28695E99DA78C3A851D463C48CD4D3
:105660001C01C416B9437CCA38655E99DA78C3A8B0
:1056700051D463C48CD41C01C516B943BCC6316374
:105680004D666AE30DA346518F1133527304C6145D
:105690008AC4ED183AC99C548E230F15B34C598E09
:1056A0003406C712A734ECAA47461B6AA8518DE2FC
:1056B000C828430DC812B6C49B869A1C4B261547B2
:1056C000545126394600C910B6C4BB4D8E25938A65
:1056D00023AA28931C23CA11B6C4EB541A8F25930E
:1056E0008A23AA28931C23CB12B6C46BCA295363FE
:1056F000C9A4E2882ACA24C708CC0BB4C48AD670CD
:1057000024E96B04CD0BB4C4AAD27024E96B04CE97
:105710000CB5C4DAB2E188DAE74800CF0BB4C45A5A
:10572000371A49FA1A01D00F88C4CCADA31E5369A9
:10573000A5954E6302D114B8C4BCCA49B3F4D27162
:10574000C691621A31CEAC7602D211B744ACC69A79
:10575000B92B3DF2C823AB9C2700D311B744BC46FC
:105760009ABD2B3DF2C823AB9C2700D411B744EC63
:10577000569AB52B3DF2C823AB9C2700D511B744F0
:10578000AC8A493377A5471E796495F304D611B7DF
:10579000446CCAA866EE4A8F3CF2C82AE709D709CA
:1057A000554C8B523B2F03D8108744ECAA931C2AEC
:1057B0008D94865439A509D913B8C4ACA63473A402
:1057C000A5A38E3AEAA8A3CE2302DA14B8C43CD229
:1057D0005033475A3AEAA8A38E3AEA3C2200DB1338
:1057E000B8C4FC46363DD2D251471D75D451E7119D
:1057F00001DC14B8C47CCA3065D6484B471D75D44B
:1058000051479D4704DD15B8C43CD25033475A3A3E
:10581000AB8C54861A6BACE18800DE0F8744CC86D3
:10582000435A524935A4462303DF0E8744EC889639
:1058300054A625951C4A01E00B84C48AD670AB910E
:10584000C600E10B84C4AAD270AB91C600E20D95EC
:10585000C46A5E36DC48AEA44602E30C85C49A1BDB
:105860006F2457522301E40B84C44A6AC3AD461A1D
:1058700003E50B84C49A8A496D35D218E60C58C4E6
:10588000CC5A51A971E93502E70B7534DB925BA65E
:105890009D2500E80C85449B469A5A6ADC6804E919
:1058A0000B8544AB4D2E356E3402EA0C95446B5E8D
:1058B000365E6ADC6804EB0C85445B9932B5D4B87B
:1058C000D108EC0A84C48AD670BA4600ED0A84C4B2
:1058D000AAD270BA4600EE0B95C46A5E36DCCE9151
:1058E00000EF0A84C44A6AC3E91A01F00E86C48B29
:1058F0008CB31E498E38A21A09F10D86C49BAA34B6
:10590000A9D411471C51F20E86C49B869A1E498E5B
:1059100038A21A09F30D86C4BB4D8F24471C518D44
:1059200004F41096C46B465369722439E2886A24E1
:1059300000F50F86C4ABAA3439921C7144351200AD
:10594000F60F86C45B9D323D921C7144351200F700
:105950000A554C6BA686A62200F80E76BC3B4C235B
:10596000A9B14654236508F90D86C49B869A9423F1
:105970008E38D232FA0C86C4BB4DCA11471C691945
:10598000FB0F96C46B4653694A8E38E248CB00FC45
:105990000D86C45B9D3229471C71A465FD0EA6B41B
:1059A000BB4D2E2BAAAC91DC1A01FE10A6B48B467F
:1059B0001A69641D71C43192461BFF0FA6B45B9D2A
:1059C00032B9ACA8B246726B0400000004FFFF00BD
:1059D000005F0003030404030505100FFEFD0BFD2B
:1059E0000BFE01C0044005FA2005008C142109B209
:1059F0008514074ACC00220843BD15112D0123163A
:105A0000A7847891602418099922C148C8140946CE
:105A1000829118002417D77C78C18A24328A506278
:105A2000C4222D42094D2292620C00251FBC845DC8
:105A3000C2A084284A1445A292505814138724C146
:105A400090281812C56292605004261ABC847D7496
:105A500091582416C521730869141A856434E188A5
:105A6000562A8900270641BD1304280DD47475A158
:105A70009028A4B7982C18290ED47415C1982C26F8
:105A8000D229244A032A0B55B4562929934C2100C4
:105A90002B0B778C78E1B45B380D002C0852751411
:105AA0001609002D07249C1587002E063285140642
:105AB0002F0DB48475996249B1A4580C00300DB70C
:105AC000845833891ABF49D446003109B585581224
:105AD0009AFE44320DB7843824514DAAA8DBE11058
